{"abi":[{"type":"constructor","inputs":[],"stateMutability":"nonpayable"},{"type":"receive","stateMutability":"payable"},{"type":"function","name":"TIMELOCK","inputs":[],"outputs":[{"name":"","type":"uint256","internalType":"uint256"}],"stateMutability":"view"},{"type":"function","name":"acceptAdmin","inputs":[],"outputs":[],"stateMutability":"nonpayable"},{"type":"function","name":"admin","inputs":[],"outputs":[{"name":"","type":"address","internalType":"address"}],"stateMutability":"view"},{"type":"function","name":"adminTransferETA","inputs":[],"outputs":[{"name":"","type":"uint256","internalType":"uint256"}],"stateMutability":"view"},{"type":"function","name":"balances","inputs":[{"name":"","type":"address","internalType":"address"}],"outputs":[{"name":"","type":"uint256","internalType":"uint256"}],"stateMutability":"view"},{"type":"function","name":"deposit","inputs":[],"outputs":[],"stateMutability":"payable"},{"type":"function","name":"emergencyDrain","inputs":[{"name":"to","type":"address","internalType":"address"}],"outputs":[],"stateMutability":"nonpayable"},{"type":"function","name":"mint","inputs":[{"name":"to","type":"address","internalType":"address"},{"name":"amount","type":"uint256","internalType":"uint256"}],"outputs":[],"stateMutability":"nonpayable"},{"type":"function","name":"pendingAdmin","inputs":[],"outputs":[{"name":"","type":"address","internalType":"address"}],"stateMutability":"view"},{"type":"function","name":"proposeAdmin","inputs":[{"name":"newAdmin","type":"address","internalType":"address"}],"outputs":[],"stateMutability":"nonpayable"},{"type":"function","name":"totalSupply","inputs":[],"outputs":[{"name":"","type":"uint256","internalType":"uint256"}],"stateMutability":"view"},{"type":"event","name":"AdminChangeProposed","inputs":[{"name":"proposed","type":"address","indexed":true,"internalType":"address"},{"name":"eta","type":"uint256","indexed":false,"internalType":"uint256"}],"anonymous":false},{"type":"event","name":"AdminChanged","inputs":[{"name":"oldAdmin","type":"address","indexed":true,"internalType":"address"},{"name":"newAdmin","type":"address","indexed":true,"internalType":"address"}],"anonymous":false},{"type":"event","name":"Drain","inputs":[{"name":"to","type":"address","indexed":true,"internalType":"address"},{"name":"amount","type":"uint256","indexed":false,"internalType":"uint256"}],"anonymous":false},{"type":"event","name":"Mint","inputs":[{"name":"to","type":"address","indexed":true,"internalType":"address"},{"name":"amount","type":"uint256","indexed":false,"internalType":"uint256"}],"anonymous":false}],"bytecode":{"object":"0x6080604052348015600e575f5ffd5b50600280546001600160a01b0319163317905561068a8061002e5f395ff3fe60806040526004361061009d575f3560e01c806340c10f191161006257806340c10f191461016757806371a18bfb146101865780637aadef8b146101a5578063bd34d2b0146101bb578063d0e30db0146101d0578063f851a440146101d8575f5ffd5b80630e18b681146100a8578063147bf6c4146100be57806318160ddd146100dd578063267822471461010557806327e235e31461013c575f5ffd5b366100a457005b5f5ffd5b3480156100b3575f5ffd5b506100bc6101f7565b005b3480156100c9575f5ffd5b506100bc6100d83660046105c4565b6102f3565b3480156100e8575f5ffd5b506100f260015481565b6040519081526020015b60405180910390f35b348015610110575f5ffd5b50600354610124906001600160a01b031681565b6040516001600160a01b0390911681526020016100fc565b348015610147575f5ffd5b506100f26101563660046105c4565b5f6020819052908152604090205481565b348015610172575f5ffd5b506100bc6101813660046105e4565b6103d0565b348015610191575f5ffd5b506100bc6101a03660046105c4565b610480565b3480156101b0575f5ffd5b506100f26202a30081565b3480156101c6575f5ffd5b506100f260045481565b6100bc610584565b3480156101e3575f5ffd5b50600254610124906001600160a01b031681565b6003546001600160a01b0316331461024a5760405162461bcd60e51b81526020600482015260116024820152702737ba103832b73234b7339030b236b4b760791b60448201526064015b60405180910390fd5b60045442101561028e5760405162461bcd60e51b815260206004820152600f60248201526e54696d656c6f636b2061637469766560881b6044820152606401610241565b6003546002546040516001600160a01b0392831692909116907f7e644d79422f17c01e4894b5f4f588d331ebfa28653d42ae832dc59e38c9798f905f90a360038054600280546001600160a01b03199081166001600160a01b03841617909155169055565b6002546001600160a01b0316331461031d5760405162461bcd60e51b81526004016102419061060c565b6001600160a01b0381166103625760405162461bcd60e51b815260206004820152600c60248201526b5a65726f206164647265737360a01b6044820152606401610241565b600380546001600160a01b0319166001600160a01b03831617905561038a6202a3004261062f565b60048190556040519081526001600160a01b038216907f7244ecd32e8ab6f416a6d85cb34f0e8aa326b4a8c837873e4ae479c5bda9dc5b9060200160405180910390a250565b6002546001600160a01b031633146103fa5760405162461bcd60e51b81526004016102419061060c565b6001600160a01b0382165f908152602081905260408120805483929061042190849061062f565b925050819055508060015f828254610439919061062f565b90915550506040518181526001600160a01b038316907f0f6798a560793a54c3bcfe86a93cde1e73087d944c0ea20544137d41213968859060200160405180910390a25050565b6002546001600160a01b031633146104aa5760405162461bcd60e51b81526004016102419061060c565b60405147905f906001600160a01b0384169083908381818185875af1925050503d805f81146104f4576040519150601f19603f3d011682016040523d82523d5f602084013e6104f9565b606091505b505090508061053c5760405162461bcd60e51b815260206004820152600f60248201526e151c985b9cd9995c8819985a5b1959608a1b6044820152606401610241565b826001600160a01b03167ff36f4d6622e16a536bbb049064af779cdd483a0b388d347d3752a65f1058bf5b8360405161057791815260200190565b60405180910390a2505050565b335f90815260208190526040812080543492906105a290849061062f565b9091555050565b80356001600160a01b03811681146105bf575f5ffd5b919050565b5f602082840312156105d4575f5ffd5b6105dd826105a9565b9392505050565b5f5f604083850312156105f5575f5ffd5b6105fe836105a9565b946020939093013593505050565b6020808252600990820152682737ba1030b236b4b760b91b604082015260600190565b8082018082111561064e57634e487b7160e01b5f52601160045260245ffd5b9291505056fea26469706673582212207dc7343ec8a5fa60a660f0233b7fbf60da2aeb47fae42921dbe1caef8bef9e7664736f6c634300081c0033","linkReferences":{}},"methodIdentifiers":{"TIMELOCK()":"7aadef8b","acceptAdmin()":"0e18b681","admin()":"f851a440","adminTransferETA()":"bd34d2b0","balances(address)":"27e235e3","deposit()":"d0e30db0","emergencyDrain(address)":"71a18bfb","mint(address,uint256)":"40c10f19","pendingAdmin()":"26782247","proposeAdmin(address)":"147bf6c4","totalSupply()":"18160ddd"},"id":20}