{"abi":[{"type":"constructor","inputs":[],"stateMutability":"nonpayable"},{"type":"receive","stateMutability":"payable"},{"type":"function","name":"admin","inputs":[],"outputs":[{"name":"","type":"address","internalType":"address"}],"stateMutability":"view"},{"type":"function","name":"balances","inputs":[{"name":"","type":"address","internalType":"address"}],"outputs":[{"name":"","type":"uint256","internalType":"uint256"}],"stateMutability":"view"},{"type":"function","name":"deposit","inputs":[],"outputs":[],"stateMutability":"payable"},{"type":"function","name":"emergencyDrain","inputs":[{"name":"to","type":"address","internalType":"address"}],"outputs":[],"stateMutability":"nonpayable"},{"type":"function","name":"mint","inputs":[{"name":"to","type":"address","internalType":"address"},{"name":"amount","type":"uint256","internalType":"uint256"}],"outputs":[],"stateMutability":"nonpayable"},{"type":"function","name":"setAdmin","inputs":[{"name":"newAdmin","type":"address","internalType":"address"}],"outputs":[],"stateMutability":"nonpayable"},{"type":"function","name":"totalSupply","inputs":[],"outputs":[{"name":"","type":"uint256","internalType":"uint256"}],"stateMutability":"view"},{"type":"event","name":"AdminChanged","inputs":[{"name":"oldAdmin","type":"address","indexed":true,"internalType":"address"},{"name":"newAdmin","type":"address","indexed":true,"internalType":"address"}],"anonymous":false},{"type":"event","name":"Drain","inputs":[{"name":"to","type":"address","indexed":true,"internalType":"address"},{"name":"amount","type":"uint256","indexed":false,"internalType":"uint256"}],"anonymous":false},{"type":"event","name":"Mint","inputs":[{"name":"to","type":"address","indexed":true,"internalType":"address"},{"name":"amount","type":"uint256","indexed":false,"internalType":"uint256"}],"anonymous":false}],"bytecode":{"object":"0x6080604052348015600e575f5ffd5b50600280546001600160a01b0319163317905561049c8061002e5f395ff3fe608060405260043610610071575f3560e01c8063704b6c021161004c578063704b6c02146100f057806371a18bfb1461010f578063d0e30db01461012e578063f851a44014610136575f5ffd5b806318160ddd1461007c57806327e235e3146100a457806340c10f19146100cf575f5ffd5b3661007857005b5f5ffd5b348015610087575f5ffd5b5061009160015481565b6040519081526020015b60405180910390f35b3480156100af575f5ffd5b506100916100be3660046103f9565b5f6020819052908152604090205481565b3480156100da575f5ffd5b506100ee6100e9366004610419565b61016d565b005b3480156100fb575f5ffd5b506100ee61010a3660046103f9565b6101f3565b34801561011a575f5ffd5b506100ee6101293660046103f9565b610299565b6100ee6103b9565b348015610141575f5ffd5b50600254610155906001600160a01b031681565b6040516001600160a01b03909116815260200161009b565b6001600160a01b0382165f9081526020819052604081208054839290610194908490610441565b925050819055508060015f8282546101ac9190610441565b90915550506040518181526001600160a01b038316907f0f6798a560793a54c3bcfe86a93cde1e73087d944c0ea20544137d41213968859060200160405180910390a25050565b6002546001600160a01b0316331461023e5760405162461bcd60e51b81526020600482015260096024820152682737ba1030b236b4b760b91b60448201526064015b60405180910390fd5b6002546040516001600160a01b038084169216907f7e644d79422f17c01e4894b5f4f588d331ebfa28653d42ae832dc59e38c9798f905f90a3600280546001600160a01b0319166001600160a01b0392909216919091179055565b6002546001600160a01b031632146102df5760405162461bcd60e51b81526020600482015260096024820152682737ba1030b236b4b760b91b6044820152606401610235565b60405147905f906001600160a01b0384169083908381818185875af1925050503d805f8114610329576040519150601f19603f3d011682016040523d82523d5f602084013e61032e565b606091505b50509050806103715760405162461bcd60e51b815260206004820152600f60248201526e151c985b9cd9995c8819985a5b1959608a1b6044820152606401610235565b826001600160a01b03167ff36f4d6622e16a536bbb049064af779cdd483a0b388d347d3752a65f1058bf5b836040516103ac91815260200190565b60405180910390a2505050565b335f90815260208190526040812080543492906103d7908490610441565b9091555050565b80356001600160a01b03811681146103f4575f5ffd5b919050565b5f60208284031215610409575f5ffd5b610412826103de565b9392505050565b5f5f6040838503121561042a575f5ffd5b610433836103de565b946020939093013593505050565b8082018082111561046057634e487b7160e01b5f52601160045260245ffd5b9291505056fea2646970667358221220f86a38d2dfdec6306184b90f41b4c4a898a2b461c4bd516d13e61c46e7f718bc64736f6c634300081c0033","linkReferences":{}},"methodIdentifiers":{"admin()":"f851a440","balances(address)":"27e235e3","deposit()":"d0e30db0","emergencyDrain(address)":"71a18bfb","mint(address,uint256)":"40c10f19","setAdmin(address)":"704b6c02","totalSupply()":"18160ddd"},"id":19}