{"abi":[{"type":"constructor","inputs":[{"name":"_initialPrice","type":"uint256","internalType":"uint256"}],"stateMutability":"nonpayable"},{"type":"function","name":"getPrice","inputs":[],"outputs":[{"name":"","type":"uint256","internalType":"uint256"}],"stateMutability":"view"},{"type":"function","name":"owner","inputs":[],"outputs":[{"name":"","type":"address","internalType":"address"}],"stateMutability":"view"},{"type":"function","name":"price","inputs":[],"outputs":[{"name":"","type":"uint256","internalType":"uint256"}],"stateMutability":"view"},{"type":"function","name":"setPrice","inputs":[{"name":"_price","type":"uint256","internalType":"uint256"}],"outputs":[],"stateMutability":"nonpayable"}],"bytecode":{"object":"0x6080604052348015600e575f5ffd5b50604051610150380380610150833981016040819052602b916043565b5f55600180546001600160a01b031916331790556059565b5f602082840312156052575f5ffd5b5051919050565b60eb806100655f395ff3fe6080604052348015600e575f5ffd5b50600436106044575f3560e01c80638da5cb5b14604857806391b7f5ed14607757806398d5fdca146088578063a035b1fe146098575b5f5ffd5b600154605a906001600160a01b031681565b6040516001600160a01b0390911681526020015b60405180910390f35b60866082366004609f565b5f55565b005b5f545b604051908152602001606e565b608b5f5481565b5f6020828403121560ae575f5ffd5b503591905056fea2646970667358221220e62384a180553558be1ec1775c7be51f60178b3ae3a4a57a4fd10ee4a2f568a764736f6c634300081c0033","linkReferences":{}},"methodIdentifiers":{"getPrice()":"98d5fdca","owner()":"8da5cb5b","price()":"a035b1fe","setPrice(uint256)":"91b7f5ed"},"id":20}