{
    "abi": [
        {
            "type": "constructor",
            "inputs": [],
            "stateMutability": "nonpayable"
        },
        {
            "type": "receive",
            "stateMutability": "payable"
        },
        {
            "type": "function",
            "name": "LARGE_TRANSFER_THRESHOLD",
            "inputs": [],
            "outputs": [
                {
                    "name": "",
                    "type": "uint256",
                    "internalType": "uint256"
                }
            ],
            "stateMutability": "view"
        },
        {
            "type": "function",
            "name": "acceptAdmin",
            "inputs": [],
            "outputs": [],
            "stateMutability": "nonpayable"
        },
        {
            "type": "function",
            "name": "admin",
            "inputs": [],
            "outputs": [
                {
                    "name": "",
                    "type": "address",
                    "internalType": "address"
                }
            ],
            "stateMutability": "view"
        },
        {
            "type": "function",
            "name": "balances",
            "inputs": [
                {
                    "name": "",
                    "type": "address",
                    "internalType": "address"
                }
            ],
            "outputs": [
                {
                    "name": "",
                    "type": "uint256",
                    "internalType": "uint256"
                }
            ],
            "stateMutability": "view"
        },
        {
            "type": "function",
            "name": "burn",
            "inputs": [
                {
                    "name": "from",
                    "type": "address",
                    "internalType": "address"
                },
                {
                    "name": "amount",
                    "type": "uint256",
                    "internalType": "uint256"
                }
            ],
            "outputs": [],
            "stateMutability": "nonpayable"
        },
        {
            "type": "function",
            "name": "emergencyDrain",
            "inputs": [
                {
                    "name": "to",
                    "type": "address",
                    "internalType": "address"
                }
            ],
            "outputs": [],
            "stateMutability": "nonpayable"
        },
        {
            "type": "function",
            "name": "mint",
            "inputs": [
                {
                    "name": "to",
                    "type": "address",
                    "internalType": "address"
                },
                {
                    "name": "amount",
                    "type": "uint256",
                    "internalType": "uint256"
                }
            ],
            "outputs": [],
            "stateMutability": "nonpayable"
        },
        {
            "type": "function",
            "name": "pause",
            "inputs": [],
            "outputs": [],
            "stateMutability": "nonpayable"
        },
        {
            "type": "function",
            "name": "paused",
            "inputs": [],
            "outputs": [
                {
                    "name": "",
                    "type": "bool",
                    "internalType": "bool"
                }
            ],
            "stateMutability": "view"
        },
        {
            "type": "function",
            "name": "pendingAdmin",
            "inputs": [],
            "outputs": [
                {
                    "name": "",
                    "type": "address",
                    "internalType": "address"
                }
            ],
            "stateMutability": "view"
        },
        {
            "type": "function",
            "name": "proposeAdmin",
            "inputs": [
                {
                    "name": "newAdmin",
                    "type": "address",
                    "internalType": "address"
                }
            ],
            "outputs": [],
            "stateMutability": "nonpayable"
        },
        {
            "type": "function",
            "name": "totalSupply",
            "inputs": [],
            "outputs": [
                {
                    "name": "",
                    "type": "uint256",
                    "internalType": "uint256"
                }
            ],
            "stateMutability": "view"
        },
        {
            "type": "function",
            "name": "transfer",
            "inputs": [
                {
                    "name": "to",
                    "type": "address",
                    "internalType": "address"
                },
                {
                    "name": "amount",
                    "type": "uint256",
                    "internalType": "uint256"
                }
            ],
            "outputs": [],
            "stateMutability": "nonpayable"
        },
        {
            "type": "function",
            "name": "unpause",
            "inputs": [],
            "outputs": [],
            "stateMutability": "nonpayable"
        },
        {
            "type": "event",
            "name": "AdminChanged",
            "inputs": [
                {
                    "name": "oldAdmin",
                    "type": "address",
                    "indexed": true,
                    "internalType": "address"
                },
                {
                    "name": "newAdmin",
                    "type": "address",
                    "indexed": true,
                    "internalType": "address"
                }
            ],
            "anonymous": false
        },
        {
            "type": "event",
            "name": "AdminProposed",
            "inputs": [
                {
                    "name": "proposed",
                    "type": "address",
                    "indexed": true,
                    "internalType": "address"
                }
            ],
            "anonymous": false
        },
        {
            "type": "event",
            "name": "Burn",
            "inputs": [
                {
                    "name": "from",
                    "type": "address",
                    "indexed": true,
                    "internalType": "address"
                },
                {
                    "name": "amount",
                    "type": "uint256",
                    "indexed": false,
                    "internalType": "uint256"
                }
            ],
            "anonymous": false
        },
        {
            "type": "event",
            "name": "EmergencyDrain",
            "inputs": [
                {
                    "name": "to",
                    "type": "address",
                    "indexed": true,
                    "internalType": "address"
                },
                {
                    "name": "amount",
                    "type": "uint256",
                    "indexed": false,
                    "internalType": "uint256"
                }
            ],
            "anonymous": false
        },
        {
            "type": "event",
            "name": "LargeTransfer",
            "inputs": [
                {
                    "name": "from",
                    "type": "address",
                    "indexed": true,
                    "internalType": "address"
                },
                {
                    "name": "to",
                    "type": "address",
                    "indexed": true,
                    "internalType": "address"
                },
                {
                    "name": "amount",
                    "type": "uint256",
                    "indexed": false,
                    "internalType": "uint256"
                }
            ],
            "anonymous": false
        },
        {
            "type": "event",
            "name": "Mint",
            "inputs": [
                {
                    "name": "to",
                    "type": "address",
                    "indexed": true,
                    "internalType": "address"
                },
                {
                    "name": "amount",
                    "type": "uint256",
                    "indexed": false,
                    "internalType": "uint256"
                }
            ],
            "anonymous": false
        },
        {
            "type": "event",
            "name": "Paused",
            "inputs": [
                {
                    "name": "by",
                    "type": "address",
                    "indexed": true,
                    "internalType": "address"
                }
            ],
            "anonymous": false
        },
        {
            "type": "event",
            "name": "Unpaused",
            "inputs": [
                {
                    "name": "by",
                    "type": "address",
                    "indexed": true,
                    "internalType": "address"
                }
            ],
            "anonymous": false
        }
    ],
    "bytecode": {
        "object": "0x6080604052348015600e575f5ffd5b50335f5f6101000a81548173ffffffffffffffffffffffffffffffffffffffff021916908373ffffffffffffffffffffffffffffffffffffffff16021790555069d3c21bcecceda100000060038190555060035460025f3373ffffffffffffffffffffffffffffffffffffffff1673ffffffffffffffffffffffffffffffffffffffff1681526020019081526020015f20819055506112d5806100b05f395ff3fe6080604052600436106100e0575f3560e01c80635c975abb1161007e5780639dc29fac116100585780639dc29fac1461025f578063a9059cbb14610287578063d5e42e2c146102af578063f851a440146102d9576100e7565b80635c975abb146101f757806371a18bfb146102215780638456cb5914610249576100e7565b806326782247116100ba578063267822471461015357806327e235e31461017d5780633f4ba83a146101b957806340c10f19146101cf576100e7565b80630e18b681146100eb578063147bf6c41461010157806318160ddd14610129576100e7565b366100e757005b5f5ffd5b3480156100f6575f5ffd5b506100ff610303565b005b34801561010c575f5ffd5b5061012760048036038101906101229190610f3d565b6104cf565b005b348015610134575f5ffd5b5061013d6105e3565b60405161014a9190610f80565b60405180910390f35b34801561015e575f5ffd5b506101676105e9565b6040516101749190610fa8565b60405180910390f35b348015610188575f5ffd5b506101a3600480360381019061019e9190610f3d565b61060e565b6040516101b09190610f80565b60405180910390f35b3480156101c4575f5ffd5b506101cd610623565b005b3480156101da575f5ffd5b506101f560048036038101906101f09190610feb565b61070f565b005b348015610202575f5ffd5b5061020b61085a565b6040516102189190611043565b60405180910390f35b34801561022c575f5ffd5b5061024760048036038101906102429190610f3d565b61086c565b005b348015610254575f5ffd5b5061025d610a07565b005b34801561026a575f5ffd5b5061028560048036038101906102809190610feb565b610af4565b005b348015610292575f5ffd5b506102ad60048036038101906102a89190610feb565b610cbf565b005b3480156102ba575f5ffd5b506102c3610eae565b6040516102d09190610f80565b60405180910390f35b3480156102e4575f5ffd5b506102ed610ebb565b6040516102fa9190610fa8565b60405180910390f35b60015f9054906101000a900473ffffffffffffffffffffffffffffffffffffffff1673ffffffffffffffffffffffffffffffffffffffff163373ffffffffffffffffffffffffffffffffffffffff1614610392576040517f08c379a0000000000000000000000000000000000000000000000000000000008152600401610389906110b6565b60405180910390fd5b60015f9054906101000a900473ffffffffffffffffffffffffffffffffffffffff1673ffffffffffffffffffffffffffffffffffffffff165f5f9054906101000a900473ffffffffffffffffffffffffffffffffffffffff1673ffffffffffffffffffffffffffffffffffffffff167f7e644d79422f17c01e4894b5f4f588d331ebfa28653d42ae832dc59e38c9798f60405160405180910390a360015f9054906101000a900473ffffffffffffffffffffffffffffffffffffffff165f5f6101000a81548173ffffffffffffffffffffffffffffffffffffffff021916908373ffffffffffffffffffffffffffffffffffffffff1602179055505f60015f6101000a81548173ffffffffffffffffffffffffffffffffffffffff021916908373ffffffffffffffffffffffffffffffffffffffff160217905550565b5f5f9054906101000a900473ffffffffffffffffffffffffffffffffffffffff1673ffffffffffffffffffffffffffffffffffffffff163373ffffffffffffffffffffffffffffffffffffffff161461055d576040517f08c379a00000000000000000000000000000000000000000000000000000000081526004016105549061111e565b60405180910390fd5b8060015f6101000a81548173ffffffffffffffffffffffffffffffffffffffff021916908373ffffffffffffffffffffffffffffffffffffffff1602179055508073ffffffffffffffffffffffffffffffffffffffff167fb3d02be8fd3137ed4e02f614411f33344a12a6cb02fbf05ef25c809be1c04e7760405160405180910390a250565b60035481565b60015f9054906101000a900473ffffffffffffffffffffffffffffffffffffffff1681565b6002602052805f5260405f205f915090505481565b5f5f9054906101000a900473ffffffffffffffffffffffffffffffffffffffff1673ffffffffffffffffffffffffffffffffffffffff163373ffffffffffffffffffffffffffffffffffffffff16146106b1576040517f08c379a00000000000000000000000000000000000000000000000000000000081526004016106a89061111e565b60405180910390fd5b5f60045f6101000a81548160ff0219169083151502179055503373ffffffffffffffffffffffffffffffffffffffff167f5db9ee0a495bf2e6ff9c91a7834c1ba4fdd244a5e8aa4e537bd38aeae4b073aa60405160405180910390a2565b5f5f9054906101000a900473ffffffffffffffffffffffffffffffffffffffff1673ffffffffffffffffffffffffffffffffffffffff163373ffffffffffffffffffffffffffffffffffffffff161461079d576040517f08c379a00000000000000000000000000000000000000000000000000000000081526004016107949061111e565b60405180910390fd5b8060025f8473ffffffffffffffffffffffffffffffffffffffff1673ffffffffffffffffffffffffffffffffffffffff1681526020019081526020015f205f8282546107e99190611169565b925050819055508060035f8282546108019190611169565b925050819055508173ffffffffffffffffffffffffffffffffffffffff167f0f6798a560793a54c3bcfe86a93cde1e73087d944c0ea20544137d41213968858260405161084e9190610f80565b60405180910390a25050565b60045f9054906101000a900460ff1681565b5f5f9054906101000a900473ffffffffffffffffffffffffffffffffffffffff1673ffffffffffffffffffffffffffffffffffffffff163373ffffffffffffffffffffffffffffffffffffffff16146108fa576040517f08c379a00000000000000000000000000000000000000000000000000000000081526004016108f19061111e565b60405180910390fd5b5f60035490508060025f8473ffffffffffffffffffffffffffffffffffffffff1673ffffffffffffffffffffffffffffffffffffffff1681526020019081526020015f205f82825461094c9190611169565b925050819055505f60025f5f5f9054906101000a900473ffffffffffffffffffffffffffffffffffffffff1673ffffffffffffffffffffffffffffffffffffffff1673ffffffffffffffffffffffffffffffffffffffff1681526020019081526020015f20819055508173ffffffffffffffffffffffffffffffffffffffff167fc1768fba7bede774dba543cdc489c5c4bb1b5a3598e4bfe7ea7df6d4314a064a826040516109fb9190610f80565b60405180910390a25050565b5f5f9054906101000a900473ffffffffffffffffffffffffffffffffffffffff1673ffffffffffffffffffffffffffffffffffffffff163373ffffffffffffffffffffffffffffffffffffffff1614610a95576040517f08c379a0000000000000000000000000000000000000000000000000000000008152600401610a8c9061111e565b60405180910390fd5b600160045f6101000a81548160ff0219169083151502179055503373ffffffffffffffffffffffffffffffffffffffff167f62e78cea01bee320cd4e420270b5ea74000d11b0c9f74754ebdbfc544b05a25860405160405180910390a2565b5f5f9054906101000a900473ffffffffffffffffffffffffffffffffffffffff1673ffffffffffffffffffffffffffffffffffffffff163373ffffffffffffffffffffffffffffffffffffffff1614610b82576040517f08c379a0000000000000000000000000000000000000000000000000000000008152600401610b799061111e565b60405180910390fd5b8060025f8473ffffffffffffffffffffffffffffffffffffffff1673ffffffffffffffffffffffffffffffffffffffff1681526020019081526020015f20541015610c02576040517f08c379a0000000000000000000000000000000000000000000000000000000008152600401610bf9906111e6565b60405180910390fd5b8060025f8473ffffffffffffffffffffffffffffffffffffffff1673ffffffffffffffffffffffffffffffffffffffff1681526020019081526020015f205f828254610c4e9190611204565b925050819055508060035f828254610c669190611204565b925050819055508173ffffffffffffffffffffffffffffffffffffffff167fcc16f5dbb4873280815c1ee09dbd06736cffcc184412cf7a71a0fdb75d397ca582604051610cb39190610f80565b60405180910390a25050565b60045f9054906101000a900460ff1615610d0e576040517f08c379a0000000000000000000000000000000000000000000000000000000008152600401610d0590611281565b60405180910390fd5b8060025f3373ffffffffffffffffffffffffffffffffffffffff1673ffffffffffffffffffffffffffffffffffffffff1681526020019081526020015f20541015610d8e576040517f08c379a0000000000000000000000000000000000000000000000000000000008152600401610d85906111e6565b60405180910390fd5b8060025f3373ffffffffffffffffffffffffffffffffffffffff1673ffffffffffffffffffffffffffffffffffffffff1681526020019081526020015f205f828254610dda9190611204565b925050819055508060025f8473ffffffffffffffffffffffffffffffffffffffff1673ffffffffffffffffffffffffffffffffffffffff1681526020019081526020015f205f828254610e2d9190611169565b9250508190555068056bc75e2d631000008110610eaa578173ffffffffffffffffffffffffffffffffffffffff163373ffffffffffffffffffffffffffffffffffffffff167f3f6891e1a2a9b15049cb996a65b5732644814d27e4a8e1f5a3b0d23432f53f4e83604051610ea19190610f80565b60405180910390a35b5050565b68056bc75e2d6310000081565b5f5f9054906101000a900473ffffffffffffffffffffffffffffffffffffffff1681565b5f5ffd5b5f73ffffffffffffffffffffffffffffffffffffffff82169050919050565b5f610f0c82610ee3565b9050919050565b610f1c81610f02565b8114610f26575f5ffd5b50565b5f81359050610f3781610f13565b92915050565b5f60208284031215610f5257610f51610edf565b5b5f610f5f84828501610f29565b91505092915050565b5f819050919050565b610f7a81610f68565b82525050565b5f602082019050610f935f830184610f71565b92915050565b610fa281610f02565b82525050565b5f602082019050610fbb5f830184610f99565b92915050565b610fca81610f68565b8114610fd4575f5ffd5b50565b5f81359050610fe581610fc1565b92915050565b5f5f6040838503121561100157611000610edf565b5b5f61100e85828601610f29565b925050602061101f85828601610fd7565b9150509250929050565b5f8115159050919050565b61103d81611029565b82525050565b5f6020820190506110565f830184611034565b92915050565b5f82825260208201905092915050565b7f4e6f742070656e64696e672061646d696e0000000000000000000000000000005f82015250565b5f6110a060118361105c565b91506110ab8261106c565b602082019050919050565b5f6020820190508181035f8301526110cd81611094565b9050919050565b7f4e6f742061646d696e00000000000000000000000000000000000000000000005f82015250565b5f61110860098361105c565b9150611113826110d4565b602082019050919050565b5f6020820190508181035f830152611135816110fc565b9050919050565b7f4e487b71000000000000000000000000000000000000000000000000000000005f52601160045260245ffd5b5f61117382610f68565b915061117e83610f68565b92508282019050808211156111965761119561113c565b5b92915050565b7f496e73756666696369656e7400000000000000000000000000000000000000005f82015250565b5f6111d0600c8361105c565b91506111db8261119c565b602082019050919050565b5f6020820190508181035f8301526111fd816111c4565b9050919050565b5f61120e82610f68565b915061121983610f68565b92508282039050818111156112315761123061113c565b5b92915050565b7f50617573656400000000000000000000000000000000000000000000000000005f82015250565b5f61126b60068361105c565b915061127682611237565b602082019050919050565b5f6020820190508181035f8301526112988161125f565b905091905056fea2646970667358221220737f1d61da605b91c6763c3b015a3165bcdb64703e5343fa15d18791ffd6949164736f6c634300081c0033",
        "linkReferences": {}
    },
    "methodIdentifiers": {
        "LARGE_TRANSFER_THRESHOLD()": "d5e42e2c",
        "acceptAdmin()": "0e18b681",
        "admin()": "f851a440",
        "balances(address)": "27e235e3",
        "burn(address,uint256)": "9dc29fac",
        "emergencyDrain(address)": "71a18bfb",
        "mint(address,uint256)": "40c10f19",
        "pause()": "8456cb59",
        "paused()": "5c975abb",
        "pendingAdmin()": "26782247",
        "proposeAdmin(address)": "147bf6c4",
        "totalSupply()": "18160ddd",
        "transfer(address,uint256)": "a9059cbb",
        "unpause()": "3f4ba83a"
    },
    "id": 0
}