{"abi":[{"type":"function","name":"balances","inputs":[{"name":"","type":"address","internalType":"address"}],"outputs":[{"name":"","type":"uint256","internalType":"uint256"}],"stateMutability":"view"},{"type":"function","name":"deposit","inputs":[],"outputs":[],"stateMutability":"payable"},{"type":"function","name":"getBalance","inputs":[],"outputs":[{"name":"","type":"uint256","internalType":"uint256"}],"stateMutability":"view"},{"type":"function","name":"transfer","inputs":[{"name":"to","type":"address","internalType":"address"},{"name":"amount","type":"uint256","internalType":"uint256"}],"outputs":[],"stateMutability":"nonpayable"},{"type":"function","name":"withdraw","inputs":[],"outputs":[],"stateMutability":"nonpayable"},{"type":"event","name":"Deposit","inputs":[{"name":"user","type":"address","indexed":true,"internalType":"address"},{"name":"amount","type":"uint256","indexed":false,"internalType":"uint256"}],"anonymous":false},{"type":"event","name":"Transfer","inputs":[{"name":"from","type":"address","indexed":true,"internalType":"address"},{"name":"to","type":"address","indexed":true,"internalType":"address"},{"name":"amount","type":"uint256","indexed":false,"internalType":"uint256"}],"anonymous":false},{"type":"event","name":"Withdrawal","inputs":[{"name":"user","type":"address","indexed":true,"internalType":"address"},{"name":"amount","type":"uint256","indexed":false,"internalType":"uint256"}],"anonymous":false}],"bytecode":{"object":"0x6080604052348015600e575f5ffd5b506103e18061001c5f395ff3fe608060405260043610610049575f3560e01c806312065fe01461004d57806327e235e31461006d5780633ccfd60b14610098578063a9059cbb146100ae578063d0e30db0146100cd575b5f5ffd5b348015610058575f5ffd5b50475b60405190815260200160405180910390f35b348015610078575f5ffd5b5061005b610087366004610323565b5f6020819052908152604090205481565b3480156100a3575f5ffd5b506100ac6100d5565b005b3480156100b9575f5ffd5b506100ac6100c8366004610343565b6101c6565b6100ac6102ae565b335f908152602081905260409020548061012c5760405162461bcd60e51b81526020600482015260136024820152724e6f7468696e6720746f20776974686472617760681b60448201526064015b60405180910390fd5b6040515f90339083908381818185875af1925050503d805f811461016b576040519150601f19603f3d011682016040523d82523d5f602084013e610170565b606091505b50509050806101b35760405162461bcd60e51b815260206004820152600f60248201526e151c985b9cd9995c8819985a5b1959608a1b6044820152606401610123565b5050335f90815260208190526040812055565b335f9081526020819052604090205481111561021b5760405162461bcd60e51b8152602060048201526014602482015273496e73756666696369656e742062616c616e636560601b6044820152606401610123565b335f908152602081905260408120805483929061023990849061037f565b90915550506001600160a01b0382165f9081526020819052604081208054839290610265908490610398565b90915550506040518181526001600160a01b0383169033907fddf252ad1be2c89b69c2b068fc378daa952ba7f163c4a11628f55a4df523b3ef9060200160405180910390a35050565b335f90815260208190526040812080543492906102cc908490610398565b909155505060405134815233907fe1fffcc4923d04b559f4d29a8bfc6cda04eb5b0d3c460751c2402c5c5cc9109c9060200160405180910390a2565b80356001600160a01b038116811461031e575f5ffd5b919050565b5f60208284031215610333575f5ffd5b61033c82610308565b9392505050565b5f5f60408385031215610354575f5ffd5b61035d83610308565b946020939093013593505050565b634e487b7160e01b5f52601160045260245ffd5b818103818111156103925761039261036b565b92915050565b808201808211156103925761039261036b56fea264697066735822122097d9ca935a994dc949d513d3424a07e243081a3bdee965296d738a9cbf008f7264736f6c634300081c0033","linkReferences":{}},"methodIdentifiers":{"balances(address)":"27e235e3","deposit()":"d0e30db0","getBalance()":"12065fe0","transfer(address,uint256)":"a9059cbb","withdraw()":"3ccfd60b"},"id":20}