{"abi":[{"type":"constructor","inputs":[{"name":"_amm","type":"address","internalType":"address"}],"stateMutability":"nonpayable"},{"type":"function","name":"COLLATERAL_RATIO","inputs":[],"outputs":[{"name":"","type":"uint256","internalType":"uint256"}],"stateMutability":"view"},{"type":"function","name":"LIQUIDATION_RATIO","inputs":[],"outputs":[{"name":"","type":"uint256","internalType":"uint256"}],"stateMutability":"view"},{"type":"function","name":"amm","inputs":[],"outputs":[{"name":"","type":"address","internalType":"contract SecureAMM"}],"stateMutability":"view"},{"type":"function","name":"borrow","inputs":[{"name":"amountB","type":"uint256","internalType":"uint256"}],"outputs":[],"stateMutability":"nonpayable"},{"type":"function","name":"collateral","inputs":[{"name":"","type":"address","internalType":"address"}],"outputs":[{"name":"","type":"uint256","internalType":"uint256"}],"stateMutability":"view"},{"type":"function","name":"debt","inputs":[{"name":"","type":"address","internalType":"address"}],"outputs":[{"name":"","type":"uint256","internalType":"uint256"}],"stateMutability":"view"},{"type":"function","name":"depositCollateral","inputs":[{"name":"amount","type":"uint256","internalType":"uint256"}],"outputs":[],"stateMutability":"nonpayable"},{"type":"function","name":"isHealthy","inputs":[{"name":"user","type":"address","internalType":"address"}],"outputs":[{"name":"","type":"bool","internalType":"bool"}],"stateMutability":"view"},{"type":"function","name":"repay","inputs":[{"name":"amountB","type":"uint256","internalType":"uint256"}],"outputs":[],"stateMutability":"nonpayable"},{"type":"event","name":"Borrowed","inputs":[{"name":"user","type":"address","indexed":true,"internalType":"address"},{"name":"amount","type":"uint256","indexed":false,"internalType":"uint256"}],"anonymous":false},{"type":"event","name":"Deposited","inputs":[{"name":"user","type":"address","indexed":true,"internalType":"address"},{"name":"amount","type":"uint256","indexed":false,"internalType":"uint256"}],"anonymous":false},{"type":"event","name":"Repaid","inputs":[{"name":"user","type":"address","indexed":true,"internalType":"address"},{"name":"amount","type":"uint256","indexed":false,"internalType":"uint256"}],"anonymous":false}],"bytecode":{"object":"0x6080604052348015600e575f5ffd5b506040516107d13803806107d1833981016040819052602b91604e565b5f80546001600160a01b0319166001600160a01b03929092169190911790556079565b5f60208284031215605d575f5ffd5b81516001600160a01b03811681146072575f5ffd5b9392505050565b61074b806100865f395ff3fe608060405234801561000f575f5ffd5b5060043610610090575f3560e01c8063bad4a01f11610063578063bad4a01f14610124578063c4323fea14610137578063c5ebeaec1461013f578063d4d9bc6814610152578063d9e69a0514610175575f5ffd5b80632a94394514610094578063371fd8e6146100c35780639b6c56ec146100d8578063a5fdc5de14610105575b5f5ffd5b5f546100a6906001600160a01b031681565b6040516001600160a01b0390911681526020015b60405180910390f35b6100d66100d136600461061f565b61017d565b005b6100f76100e6366004610636565b60026020525f908152604090205481565b6040519081526020016100ba565b6100f7610113366004610636565b60016020525f908152604090205481565b6100d661013236600461061f565b61024d565b6100f7606e81565b6100d661014d36600461061f565b610369565b610165610160366004610636565b610509565b60405190151581526020016100ba565b6100f7609681565b5f81116101a55760405162461bcd60e51b815260040161019c90610663565b60405180910390fd5b335f908152600260205260409020548111156101f15760405162461bcd60e51b815260206004820152600b60248201526a13dd995c9c185e5b595b9d60aa1b604482015260640161019c565b335f908152600260205260408120805483929061020f90849061069c565b909155505060405181815233907f0516911bcc3a0a7412a44601057c0a0a1ec628bde049a84284bc428866534488906020015b60405180910390a250565b5f811161026c5760405162461bcd60e51b815260040161019c90610663565b5f5460405163072b4b2b60e21b815233600482015282916001600160a01b031690631cad2cac90602401602060405180830381865afa1580156102b1573d5f5f3e3d5ffd5b505050506040513d601f19601f820116820180604052508101906102d591906106b5565b10156103145760405162461bcd60e51b815260206004820152600e60248201526d496e73756666696369656e74204160901b604482015260640161019c565b335f90815260016020526040812080548392906103329084906106cc565b909155505060405181815233907f2da466a7b24304f47e87fa2e1e5a81b9831ce54fec19055ce277ca2f39ba42c490602001610242565b5f81116103885760405162461bcd60e51b815260040161019c90610663565b5f5f5f9054906101000a90046001600160a01b03166001600160a01b031663d262271d6040518163ffffffff1660e01b8152600401602060405180830381865afa1580156103d8573d5f5f3e3d5ffd5b505050506040513d601f19601f820116820180604052508101906103fc91906106b5565b335f9081526001602052604081205491925090670de0b6b3a7640000906104249084906106df565b61042e91906106f6565b90505f609661043e8360646106df565b61044891906106f6565b335f9081526002602052604090205490915081906104679086906106cc565b11156104ab5760405162461bcd60e51b8152602060048201526013602482015272155b99195c98dbdb1b185d195c985b1a5e9959606a1b604482015260640161019c565b335f90815260026020526040812080548692906104c99084906106cc565b909155505060405184815233907fac59582e5396aca512fa873a2047e7f4c80f8f55d4a06cb34a78a0187f62719f9060200160405180910390a250505050565b6001600160a01b0381165f90815260026020526040812054810361052f57506001919050565b5f5f5f9054906101000a90046001600160a01b03166001600160a01b031663d262271d6040518163ffffffff1660e01b8152600401602060405180830381865afa15801561057f573d5f5f3e3d5ffd5b505050506040513d601f19601f820116820180604052508101906105a391906106b5565b6001600160a01b0384165f9081526001602052604081205491925090670de0b6b3a7640000906105d49084906106df565b6105de91906106f6565b6001600160a01b0385165f908152600260205260408120549192509060649061060990606e906106df565b61061391906106f6565b90911015949350505050565b5f6020828403121561062f575f5ffd5b5035919050565b5f60208284031215610646575f5ffd5b81356001600160a01b038116811461065c575f5ffd5b9392505050565b6020808252600b908201526a16995c9bc8185b5bdd5b9d60aa1b604082015260600190565b634e487b7160e01b5f52601160045260245ffd5b818103818111156106af576106af610688565b92915050565b5f602082840312156106c5575f5ffd5b5051919050565b808201808211156106af576106af610688565b80820281158282048414176106af576106af610688565b5f8261071057634e487b7160e01b5f52601260045260245ffd5b50049056fea26469706673582212201f6a93da97dd131099157e37686a2f38e0fbceb65b1ba579beffe02a6389d25864736f6c634300081c0033","linkReferences":{}},"methodIdentifiers":{"COLLATERAL_RATIO()":"d9e69a05","LIQUIDATION_RATIO()":"c4323fea","amm()":"2a943945","borrow(uint256)":"c5ebeaec","collateral(address)":"a5fdc5de","debt(address)":"9b6c56ec","depositCollateral(uint256)":"bad4a01f","isHealthy(address)":"d4d9bc68","repay(uint256)":"371fd8e6"},"id":23}