{"abi":[{"type":"constructor","inputs":[],"stateMutability":"nonpayable"},{"type":"function","name":"balances","inputs":[{"name":"","type":"address","internalType":"address"}],"outputs":[{"name":"","type":"uint256","internalType":"uint256"}],"stateMutability":"view"},{"type":"function","name":"batchTransfer","inputs":[{"name":"recipients","type":"address[]","internalType":"address[]"},{"name":"amount","type":"uint256","internalType":"uint256"}],"outputs":[],"stateMutability":"nonpayable"},{"type":"function","name":"name","inputs":[],"outputs":[{"name":"","type":"string","internalType":"string"}],"stateMutability":"view"},{"type":"function","name":"symbol","inputs":[],"outputs":[{"name":"","type":"string","internalType":"string"}],"stateMutability":"view"},{"type":"function","name":"totalSupply","inputs":[],"outputs":[{"name":"","type":"uint256","internalType":"uint256"}],"stateMutability":"view"},{"type":"function","name":"transfer","inputs":[{"name":"to","type":"address","internalType":"address"},{"name":"amount","type":"uint256","internalType":"uint256"}],"outputs":[],"stateMutability":"nonpayable"},{"type":"event","name":"Transfer","inputs":[{"name":"from","type":"address","indexed":true,"internalType":"address"},{"name":"to","type":"address","indexed":true,"internalType":"address"},{"name":"amount","type":"uint256","indexed":false,"internalType":"uint256"}],"anonymous":false}],"bytecode":{"object":"0x60c0604052600d60809081526c27bb32b9333637bbaa37b5b2b760991b60a05260029061002c908261011c565b506040805180820190915260038082526227ab2360e91b602083015290610053908261011c565b5034801561005f575f5ffd5b5069d3c21bcecceda10000006001819055335f908152602081905260409020556101d6565b634e487b7160e01b5f52604160045260245ffd5b600181811c908216806100ac57607f821691505b6020821081036100ca57634e487b7160e01b5f52602260045260245ffd5b50919050565b601f82111561011757805f5260205f20601f840160051c810160208510156100f55750805b601f840160051c820191505b81811015610114575f8155600101610101565b50505b505050565b81516001600160401b0381111561013557610135610084565b610149816101438454610098565b846100d0565b6020601f82116001811461017b575f83156101645750848201515b5f19600385901b1c1916600184901b178455610114565b5f84815260208120601f198516915b828110156101aa578785015182556020948501946001909201910161018a565b50848210156101c757868401515f19600387901b60f8161c191681555b50505050600190811b01905550565b610587806101e35f395ff3fe608060405234801561000f575f5ffd5b5060043610610060575f3560e01c806306fdde031461006457806318160ddd1461008257806327e235e31461009957806383f12fec146100b857806395d89b41146100cd578063a9059cbb146100d5575b5f5ffd5b61006c6100e8565b60405161007991906103b8565b60405180910390f35b61008b60015481565b604051908152602001610079565b61008b6100a7366004610408565b5f6020819052908152604090205481565b6100cb6100c6366004610428565b610174565b005b61006c6102cb565b6100cb6100e336600461049d565b6102d8565b600280546100f5906104c5565b80601f0160208091040260200160405190810160405280929190818152602001828054610121906104c5565b801561016c5780601f106101435761010080835404028352916020019161016c565b820191905f5260205f20905b81548152906001019060200180831161014f57829003601f168201915b505050505081565b335f90815260208190526040902054828202908111156101d25760405162461bcd60e51b8152602060048201526014602482015273496e73756666696369656e742062616c616e636560601b60448201526064015b60405180910390fd5b335f90815260208190526040812080548392906101f0908490610511565b909155505f90505b838110156102c457825f5f8787858181106102155761021561052a565b905060200201602081019061022a9190610408565b6001600160a01b0316815260208101919091526040015f208054909101905584848281811061025b5761025b61052a565b90506020020160208101906102709190610408565b6001600160a01b0316336001600160a01b03167fddf252ad1be2c89b69c2b068fc378daa952ba7f163c4a11628f55a4df523b3ef856040516102b491815260200190565b60405180910390a36001016101f8565b5050505050565b600380546100f5906104c5565b335f908152602081905260409020548111156103255760405162461bcd60e51b815260206004820152600c60248201526b125b9cdd59999a58da595b9d60a21b60448201526064016101c9565b335f9081526020819052604081208054839290610343908490610511565b90915550506001600160a01b0382165f908152602081905260408120805483929061036f90849061053e565b90915550506040518181526001600160a01b0383169033907fddf252ad1be2c89b69c2b068fc378daa952ba7f163c4a11628f55a4df523b3ef9060200160405180910390a35050565b602081525f82518060208401528060208501604085015e5f604082850101526040601f19601f83011684010191505092915050565b80356001600160a01b0381168114610403575f5ffd5b919050565b5f60208284031215610418575f5ffd5b610421826103ed565b9392505050565b5f5f5f6040848603121561043a575f5ffd5b833567ffffffffffffffff811115610450575f5ffd5b8401601f81018613610460575f5ffd5b803567ffffffffffffffff811115610476575f5ffd5b8660208260051b840101111561048a575f5ffd5b6020918201979096509401359392505050565b5f5f604083850312156104ae575f5ffd5b6104b7836103ed565b946020939093013593505050565b600181811c908216806104d957607f821691505b6020821081036104f757634e487b7160e01b5f52602260045260245ffd5b50919050565b634e487b7160e01b5f52601160045260245ffd5b81810381811115610524576105246104fd565b92915050565b634e487b7160e01b5f52603260045260245ffd5b80820180821115610524576105246104fd56fea2646970667358221220c98199fc3c71680768ed57c963c9811ac010241d6de608d1c5bd92301f0e3d4464736f6c634300081c0033","linkReferences":{}},"methodIdentifiers":{"balances(address)":"27e235e3","batchTransfer(address[],uint256)":"83f12fec","name()":"06fdde03","symbol()":"95d89b41","totalSupply()":"18160ddd","transfer(address,uint256)":"a9059cbb"},"id":19}