{"abi":[{"type":"constructor","inputs":[{"name":"_oracle","type":"address","internalType":"address"}],"stateMutability":"nonpayable"},{"type":"receive","stateMutability":"payable"},{"type":"function","name":"LIQ_BONUS","inputs":[],"outputs":[{"name":"","type":"uint256","internalType":"uint256"}],"stateMutability":"view"},{"type":"function","name":"LIQ_HEALTH_FACTOR","inputs":[],"outputs":[{"name":"","type":"uint256","internalType":"uint256"}],"stateMutability":"view"},{"type":"function","name":"MIN_HEALTH_FACTOR","inputs":[],"outputs":[{"name":"","type":"uint256","internalType":"uint256"}],"stateMutability":"view"},{"type":"function","name":"borrow","inputs":[{"name":"amount","type":"uint256","internalType":"uint256"}],"outputs":[],"stateMutability":"nonpayable"},{"type":"function","name":"borrows","inputs":[{"name":"","type":"address","internalType":"address"}],"outputs":[{"name":"","type":"uint256","internalType":"uint256"}],"stateMutability":"view"},{"type":"function","name":"deposit","inputs":[],"outputs":[],"stateMutability":"payable"},{"type":"function","name":"deposits","inputs":[{"name":"","type":"address","internalType":"address"}],"outputs":[{"name":"","type":"uint256","internalType":"uint256"}],"stateMutability":"view"},{"type":"function","name":"getPrice","inputs":[],"outputs":[{"name":"","type":"uint256","internalType":"uint256"}],"stateMutability":"view"},{"type":"function","name":"healthFactor","inputs":[{"name":"user","type":"address","internalType":"address"}],"outputs":[{"name":"","type":"uint256","internalType":"uint256"}],"stateMutability":"view"},{"type":"function","name":"interestRateBPS","inputs":[],"outputs":[{"name":"","type":"uint256","internalType":"uint256"}],"stateMutability":"view"},{"type":"function","name":"lastInterestUpdate","inputs":[{"name":"","type":"address","internalType":"address"}],"outputs":[{"name":"","type":"uint256","internalType":"uint256"}],"stateMutability":"view"},{"type":"function","name":"liquidate","inputs":[{"name":"borrower","type":"address","internalType":"address"}],"outputs":[],"stateMutability":"payable"},{"type":"function","name":"owner","inputs":[],"outputs":[{"name":"","type":"address","internalType":"address"}],"stateMutability":"view"},{"type":"function","name":"priceOracle","inputs":[],"outputs":[{"name":"","type":"address","internalType":"address"}],"stateMutability":"view"},{"type":"function","name":"repay","inputs":[],"outputs":[],"stateMutability":"payable"},{"type":"function","name":"setOracle","inputs":[{"name":"_oracle","type":"address","internalType":"address"}],"outputs":[],"stateMutability":"nonpayable"},{"type":"function","name":"totalReserves","inputs":[],"outputs":[{"name":"","type":"uint256","internalType":"uint256"}],"stateMutability":"view"},{"type":"function","name":"withdraw","inputs":[{"name":"amount","type":"uint256","internalType":"uint256"}],"outputs":[],"stateMutability":"nonpayable"},{"type":"event","name":"Borrow","inputs":[{"name":"user","type":"address","indexed":true,"internalType":"address"},{"name":"amount","type":"uint256","indexed":false,"internalType":"uint256"}],"anonymous":false},{"type":"event","name":"Deposit","inputs":[{"name":"user","type":"address","indexed":true,"internalType":"address"},{"name":"amount","type":"uint256","indexed":false,"internalType":"uint256"}],"anonymous":false},{"type":"event","name":"Liquidate","inputs":[{"name":"liquidator","type":"address","indexed":true,"internalType":"address"},{"name":"borrower","type":"address","indexed":true,"internalType":"address"},{"name":"repaid","type":"uint256","indexed":false,"internalType":"uint256"},{"name":"collateralSeized","type":"uint256","indexed":false,"internalType":"uint256"}],"anonymous":false},{"type":"event","name":"OracleUpdated","inputs":[{"name":"newOracle","type":"address","indexed":true,"internalType":"address"}],"anonymous":false},{"type":"event","name":"Repay","inputs":[{"name":"user","type":"address","indexed":true,"internalType":"address"},{"name":"amount","type":"uint256","indexed":false,"internalType":"uint256"}],"anonymous":false},{"type":"event","name":"Withdraw","inputs":[{"name":"user","type":"address","indexed":true,"internalType":"address"},{"name":"amount","type":"uint256","indexed":false,"internalType":"uint256"}],"anonymous":false}],"bytecode":{"object":"0x60806040526101f46005553480156014575f5ffd5b50604051610db6380380610db68339810160408190526031916062565b5f8054336001600160a01b031991821617909155600180549091166001600160a01b0392909216919091179055608d565b5f602082840312156071575f5ffd5b81516001600160a01b03811681146086575f5ffd5b9392505050565b610d1c8061009a5f395ff3fe608060405260043610610108575f3560e01c80638da5cb5b11610092578063c5ebeaec11610062578063c5ebeaec14610285578063d0e30db0146102a4578063ef8b3d56146102ac578063fade3496146102c1578063fc7e286d146102ec575f5ffd5b80638da5cb5b1461022a5780638f840ddd1461024857806398d5fdca1461025d578063b5627e4214610271575f5ffd5b8063402d8883116100d8578063402d8883146101a557806354a5706f146101ad5780636ad9f9df146101d857806371f38941146101f75780637adbf9731461020b575f5ffd5b80632630c12f14610113578063268719ac1461014f5780632e1a7d4d146101715780632f86556814610192575f5ffd5b3661010f57005b5f5ffd5b34801561011e575f5ffd5b50600154610132906001600160a01b031681565b6040516001600160a01b0390911681526020015b60405180910390f35b34801561015a575f5ffd5b50610163606e81565b604051908152602001610146565b34801561017c575f5ffd5b5061019061018b366004610c15565b610317565b005b6101906101a0366004610c2c565b610454565b61019061060a565b3480156101b8575f5ffd5b506101636101c7366004610c2c565b60036020525f908152604090205481565b3480156101e3575f5ffd5b506101636101f2366004610c2c565b61070f565b348015610202575f5ffd5b50610163606981565b348015610216575f5ffd5b50610190610225366004610c2c565b610791565b348015610235575f5ffd5b505f54610132906001600160a01b031681565b348015610253575f5ffd5b5061016360045481565b348015610268575f5ffd5b5061016361081f565b34801561027c575f5ffd5b50610163609681565b348015610290575f5ffd5b5061019061029f366004610c15565b61088f565b610190610ace565b3480156102b7575f5ffd5b5061016360055481565b3480156102cc575f5ffd5b506101636102db366004610c2c565b60066020525f908152604090205481565b3480156102f7575f5ffd5b50610163610306366004610c2c565b60026020525f908152604090205481565b335f908152600260205260409020548111156103715760405162461bcd60e51b8152602060048201526014602482015273125b9cdd59999a58da595b9d0819195c1bdcda5d60621b60448201526064015b60405180910390fd5b6040515f90339083908381818185875af1925050503d805f81146103b0576040519150601f19603f3d011682016040523d82523d5f602084013e6103b5565b606091505b50509050806103f85760405162461bcd60e51b815260206004820152600f60248201526e151c985b9cd9995c8819985a5b1959608a1b6044820152606401610368565b335f818152600260205260409081902080548590039055600480548590039055517f884edad9ce6fa2440d8a54cc123490eb96d2768479d49ff9c7366125a9424364906104489085815260200190565b60405180910390a25050565b5f61045e82610b94565b90505f81116104995760405162461bcd60e51b8152602060048201526007602482015266139bc81919589d60ca1b6044820152606401610368565b345f60646104a8606984610c6d565b6104b29190610c8a565b6001600160a01b0385165f9081526002602052604090205490915081111561051c5760405162461bcd60e51b815260206004820152601760248201527f496e73756666696369656e7420636f6c6c61746572616c0000000000000000006044820152606401610368565b828211610529578161052b565b825b6001600160a01b0385165f9081526003602052604081208054909190610552908490610ca9565b90915550506001600160a01b0384165f908152600260205260408120805483929061057e908490610ca9565b9091555050335f90815260026020526040812080548392906105a1908490610cbc565b925050819055508160045f8282546105b99190610cbc565b909155505060408051838152602081018390526001600160a01b0386169133917ff3fa0eaee8f258c23b013654df25d1527f98a5c7ccd5e951dd77caca400ef972910160405180910390a350505050565b5f34116106465760405162461bcd60e51b815260206004820152600a6024820152695a65726f20726570617960b01b6044820152606401610368565b5f61065033610b94565b90505f811161068b5760405162461bcd60e51b8152602060048201526007602482015266139bc81919589d60ca1b6044820152606401610368565b5f813411610699573461069b565b815b90506106a78183610ca9565b335f9081526003602090815260408083209390935560069052908120429055600480543492906106d8908490610cbc565b909155505060405181815233907f5c16de4f8b59bd9caf0f49a545f25819a895ed223294290b408242e72a59423190602001610448565b5f5f61071a83610b94565b9050805f0361072c57505f1992915050565b5f61073561081f565b6001600160a01b0385165f9081526002602052604081205491925090670de0b6b3a764000090610766908490610c6d565b6107709190610c8a565b90508261077e826064610c6d565b6107889190610c8a565b95945050505050565b5f546001600160a01b031633146107d65760405162461bcd60e51b81526020600482015260096024820152682737ba1037bbb732b960b91b6044820152606401610368565b600180546001600160a01b0319166001600160a01b0383169081179091556040517f3df77beb5db05fcdd70a30fc8adf3f83f9501b68579455adbd100b8180940394905f90a250565b60015460408051634c6afee560e11b815290515f926001600160a01b0316916398d5fdca9160048083019260209291908290030181865afa158015610866573d5f5f3e3d5ffd5b505050506040513d601f19601f8201168201806040525081019061088a9190610ccf565b905090565b5f81116108cc5760405162461bcd60e51b815260206004820152600b60248201526a5a65726f20626f72726f7760a81b6044820152606401610368565b8060045410156109175760405162461bcd60e51b8152602060048201526016602482015275496e73756666696369656e74206c697175696469747960501b6044820152606401610368565b5f61092061081f565b335f9081526002602052604081205491925090670de0b6b3a764000090610948908490610c6d565b6109529190610c8a565b90505f61095e33610b94565b90505f61096b8583610cbc565b90505f8161097a856064610c6d565b6109849190610c8a565b905060968110156109cd5760405162461bcd60e51b8152602060048201526013602482015272155b99195c98dbdb1b185d195c985b1a5e9959606a1b6044820152606401610368565b335f90815260036020908152604080832085905560069091528120429055600480548892906109fd908490610ca9565b90915550506040515f90339088908381818185875af1925050503d805f8114610a41576040519150601f19603f3d011682016040523d82523d5f602084013e610a46565b606091505b5050905080610a905760405162461bcd60e51b8152602060048201526016602482015275109bdc9c9bddc81d1c985b9cd9995c8819985a5b195960521b6044820152606401610368565b60405187815233907fcbc04eca7e9da35cb1393a6135a199ca52e450d5e9251cbd99f7847d33a367509060200160405180910390a250505050505050565b5f3411610b0c5760405162461bcd60e51b815260206004820152600c60248201526b16995c9bc819195c1bdcda5d60a21b6044820152606401610368565b335f9081526002602052604081208054349290610b2a908490610cbc565b925050819055503460045f828254610b429190610cbc565b9091555050335f8181526006602052604090819020429055517fe1fffcc4923d04b559f4d29a8bfc6cda04eb5b0d3c460751c2402c5c5cc9109c90610b8a9034815260200190565b60405180910390a2565b6001600160a01b0381165f90815260036020526040812054808203610bbb57505f92915050565b6001600160a01b0383165f90815260066020526040812054610bdd9042610ca9565b90505f64496cebb8008260055485610bf59190610c6d565b610bff9190610c6d565b610c099190610c8a565b90506107888184610cbc565b5f60208284031215610c25575f5ffd5b5035919050565b5f60208284031215610c3c575f5ffd5b81356001600160a01b0381168114610c52575f5ffd5b9392505050565b634e487b7160e01b5f52601160045260245ffd5b8082028115828204841417610c8457610c84610c59565b92915050565b5f82610ca457634e487b7160e01b5f52601260045260245ffd5b500490565b81810381811115610c8457610c84610c59565b80820180821115610c8457610c84610c59565b5f60208284031215610cdf575f5ffd5b505191905056fea26469706673582212208d6ffda5be57ccb3349e5207358e11826b67eb77a33fdcde9153fe643bc63d0064736f6c634300081c0033","linkReferences":{}},"methodIdentifiers":{"LIQ_BONUS()":"71f38941","LIQ_HEALTH_FACTOR()":"268719ac","MIN_HEALTH_FACTOR()":"b5627e42","borrow(uint256)":"c5ebeaec","borrows(address)":"54a5706f","deposit()":"d0e30db0","deposits(address)":"fc7e286d","getPrice()":"98d5fdca","healthFactor(address)":"6ad9f9df","interestRateBPS()":"ef8b3d56","lastInterestUpdate(address)":"fade3496","liquidate(address)":"2f865568","owner()":"8da5cb5b","priceOracle()":"2630c12f","repay()":"402d8883","setOracle(address)":"7adbf973","totalReserves()":"8f840ddd","withdraw(uint256)":"2e1a7d4d"},"id":19}