{"abi":[{"type":"constructor","inputs":[{"name":"initA","type":"uint256","internalType":"uint256"},{"name":"initB","type":"uint256","internalType":"uint256"}],"stateMutability":"nonpayable"},{"type":"function","name":"FEE_BPS","inputs":[],"outputs":[{"name":"","type":"uint256","internalType":"uint256"}],"stateMutability":"view"},{"type":"function","name":"TWAP_WINDOW","inputs":[],"outputs":[{"name":"","type":"uint256","internalType":"uint256"}],"stateMutability":"view"},{"type":"function","name":"balanceA","inputs":[{"name":"","type":"address","internalType":"address"}],"outputs":[{"name":"","type":"uint256","internalType":"uint256"}],"stateMutability":"view"},{"type":"function","name":"balanceB","inputs":[{"name":"","type":"address","internalType":"address"}],"outputs":[{"name":"","type":"uint256","internalType":"uint256"}],"stateMutability":"view"},{"type":"function","name":"blockTimestampLast","inputs":[],"outputs":[{"name":"","type":"uint256","internalType":"uint256"}],"stateMutability":"view"},{"type":"function","name":"deal","inputs":[{"name":"user","type":"address","internalType":"address"},{"name":"amtA","type":"uint256","internalType":"uint256"},{"name":"amtB","type":"uint256","internalType":"uint256"}],"outputs":[],"stateMutability":"nonpayable"},{"type":"function","name":"getSpotPrice","inputs":[],"outputs":[{"name":"","type":"uint256","internalType":"uint256"}],"stateMutability":"view"},{"type":"function","name":"getTWAPPrice","inputs":[],"outputs":[{"name":"","type":"uint256","internalType":"uint256"}],"stateMutability":"view"},{"type":"function","name":"priceACumulativeLast","inputs":[],"outputs":[{"name":"","type":"uint256","internalType":"uint256"}],"stateMutability":"view"},{"type":"function","name":"priceBCumulativeLast","inputs":[],"outputs":[{"name":"","type":"uint256","internalType":"uint256"}],"stateMutability":"view"},{"type":"function","name":"reserveA","inputs":[],"outputs":[{"name":"","type":"uint256","internalType":"uint256"}],"stateMutability":"view"},{"type":"function","name":"reserveB","inputs":[],"outputs":[{"name":"","type":"uint256","internalType":"uint256"}],"stateMutability":"view"},{"type":"function","name":"snapshotCumulative","inputs":[],"outputs":[{"name":"","type":"uint256","internalType":"uint256"}],"stateMutability":"view"},{"type":"function","name":"snapshotTimestamp","inputs":[],"outputs":[{"name":"","type":"uint256","internalType":"uint256"}],"stateMutability":"view"},{"type":"function","name":"swapAtoB","inputs":[{"name":"amountIn","type":"uint256","internalType":"uint256"}],"outputs":[{"name":"amountOut","type":"uint256","internalType":"uint256"}],"stateMutability":"nonpayable"},{"type":"function","name":"swapBtoA","inputs":[{"name":"amountIn","type":"uint256","internalType":"uint256"}],"outputs":[{"name":"amountOut","type":"uint256","internalType":"uint256"}],"stateMutability":"nonpayable"},{"type":"function","name":"twapPriceA","inputs":[],"outputs":[{"name":"","type":"uint256","internalType":"uint256"}],"stateMutability":"view"},{"type":"event","name":"Swap","inputs":[{"name":"user","type":"address","indexed":true,"internalType":"address"},{"name":"amountIn","type":"uint256","indexed":false,"internalType":"uint256"},{"name":"amountOut","type":"uint256","indexed":false,"internalType":"uint256"},{"name":"aToB","type":"bool","indexed":false,"internalType":"bool"}],"anonymous":false},{"type":"event","name":"TWAPUpdated","inputs":[{"name":"newPrice","type":"uint256","indexed":false,"internalType":"uint256"},{"name":"timestamp","type":"uint256","indexed":false,"internalType":"uint256"}],"anonymous":false}],"bytecode":{"object":"0x6080604052348015600e575f5ffd5b50604051610a6d380380610a6d833981016040819052602b916063565b5f829055600181905542600681905560095581604e82670de0b6b3a76400006084565b6056919060ac565b60075550505f60085560ca565b5f5f604083850312156073575f5ffd5b505080516020909101519092909150565b808202811582820484141760a657634e487b7160e01b5f52601160045260245ffd5b92915050565b5f8260c557634e487b7160e01b5f52601260045260245ffd5b500490565b610996806100d75f395ff3fe608060405234801561000f575f5ffd5b5060043610610106575f3560e01c8063c5700a021161009e578063dc76fabc1161006e578063dc76fabc146101bb578063e0441df0146101c3578063e26acaf5146101d6578063e2c1d1d1146101eb578063e6e626e3146101f3575f5ffd5b8063c5700a021461018f578063d262271d14610198578063da0d6735146101a0578063dc5fa6c5146101b3575f5ffd5b806320297e97116100d957806320297e97146101565780639b63c15a146101755780639c43eb541461017e578063bf333f2c14610187575f5ffd5b80630dc6b6171461010a5780631169c9a81461012557806319e36f3b1461012e5780631cad2cac14610137575b5f5ffd5b61011360055481565b60405190815260200160405180910390f35b61011360075481565b61011360015481565b610113610145366004610883565b60026020525f908152604090205481565b610113610164366004610883565b60036020525f908152604090205481565b61011360045481565b61011360095481565b610113601e81565b61011360065481565b6101136101fc565b6101136101ae3660046108a3565b610283565b6101135f5481565b6101136104bb565b6101136101d13660046108a3565b610521565b6101e96101e43660046108ba565b610748565b005b610113600a81565b61011360085481565b5f5f6009544261020c91906108fe565b9050805f0361021d57505060075490565b5f6102266104bb565b90505f6006544261023791906108fe565b6102419083610917565b60045461024e919061092e565b90505f6009544261025f91906108fe565b9050806008548361027091906108fe565b61027a9190610941565b94505050505090565b5f5f82116102c65760405162461bcd60e51b815260206004820152600b60248201526a16995c9bc8185b5bdd5b9d60aa1b60448201526064015b60405180910390fd5b335f908152600260205260409020548211156103155760405162461bcd60e51b815260206004820152600e60248201526d496e73756666696369656e74204160901b60448201526064016102bd565b61031d6107a5565b5f61032b601e6127106108fe565b6103359084610917565b9050805f546127106103479190610917565b610351919061092e565b60015461035e9083610917565b6103689190610941565b91505f82116103af5760405162461bcd60e51b8152602060048201526013602482015272125b9cdd59999a58da595b9d081bdd5d1c1d5d606a1b60448201526064016102bd565b60015482106103f95760405162461bcd60e51b8152602060048201526016602482015275496e73756666696369656e74206c697175696469747960501b60448201526064016102bd565b335f90815260026020526040812080548592906104179084906108fe565b9091555050335f908152600360205260408120805484929061043a90849061092e565b92505081905550825f5f828254610451919061092e565b925050819055508160015f82825461046991906108fe565b9091555050604080518481526020810184905260019181019190915233907fcc65e4d9060ece2ecf63011ac580550b04c8daeba63fac4dfe8669353cd88859906060015b60405180910390a250919050565b5f5f5f54116104fb5760405162461bcd60e51b815260206004820152600c60248201526b4e6f206c697175696469747960a01b60448201526064016102bd565b5f5460015461051290670de0b6b3a7640000610917565b61051c9190610941565b905090565b5f5f821161055f5760405162461bcd60e51b815260206004820152600b60248201526a16995c9bc8185b5bdd5b9d60aa1b60448201526064016102bd565b335f908152600360205260409020548211156105ae5760405162461bcd60e51b815260206004820152600e60248201526d24b739bab33334b1b4b2b73a102160911b60448201526064016102bd565b6105b66107a5565b5f6105c4601e6127106108fe565b6105ce9084610917565b9050806001546127106105e19190610917565b6105eb919061092e565b5f546105f79083610917565b6106019190610941565b91505f82116106485760405162461bcd60e51b8152602060048201526013602482015272125b9cdd59999a58da595b9d081bdd5d1c1d5d606a1b60448201526064016102bd565b5f5482106106915760405162461bcd60e51b8152602060048201526016602482015275496e73756666696369656e74206c697175696469747960501b60448201526064016102bd565b335f90815260036020526040812080548592906106af9084906108fe565b9091555050335f90815260026020526040812080548492906106d290849061092e565b925050819055508260015f8282546106ea919061092e565b92505081905550815f5f82825461070191906108fe565b909155505060408051848152602081018490525f9181019190915233907fcc65e4d9060ece2ecf63011ac580550b04c8daeba63fac4dfe8669353cd88859906060016104ad565b6001600160a01b0383165f908152600260205260408120805484929061076f90849061092e565b90915550506001600160a01b0383165f908152600360205260408120805483929061079b90849061092e565b9091555050505050565b5f600654426107b491906108fe565b90505f811180156107c557505f5f54115b156107f757806107d36104bb565b6107dd9190610917565b60045f8282546107ed919061092e565b9091555050426006555b600a600954610806919061092e565b4210610865576108146101fc565b60078190556004546008554260098190556040517fc66eac7bddc4413b229574dd8ea8652bc7d37c8a8ee0faef935f89b06087d97e9261085c92908252602082015260400190565b60405180910390a15b50565b80356001600160a01b038116811461087e575f5ffd5b919050565b5f60208284031215610893575f5ffd5b61089c82610868565b9392505050565b5f602082840312156108b3575f5ffd5b5035919050565b5f5f5f606084860312156108cc575f5ffd5b6108d584610868565b95602085013595506040909401359392505050565b634e487b7160e01b5f52601160045260245ffd5b81810381811115610911576109116108ea565b92915050565b8082028115828204841417610911576109116108ea565b80820180821115610911576109116108ea565b5f8261095b57634e487b7160e01b5f52601260045260245ffd5b50049056fea2646970667358221220ba7f9ac458a864a083e299935e3cabdeefa2711e362074321ea9ec8a71c4341c64736f6c634300081c0033","linkReferences":{}},"methodIdentifiers":{"FEE_BPS()":"bf333f2c","TWAP_WINDOW()":"e2c1d1d1","balanceA(address)":"1cad2cac","balanceB(address)":"20297e97","blockTimestampLast()":"c5700a02","deal(address,uint256,uint256)":"e26acaf5","getSpotPrice()":"dc76fabc","getTWAPPrice()":"d262271d","priceACumulativeLast()":"9b63c15a","priceBCumulativeLast()":"0dc6b617","reserveA()":"dc5fa6c5","reserveB()":"19e36f3b","snapshotCumulative()":"e6e626e3","snapshotTimestamp()":"9c43eb54","swapAtoB(uint256)":"da0d6735","swapBtoA(uint256)":"e0441df0","twapPriceA()":"1169c9a8"},"id":22}