{"abi":[{"type":"function","name":"balances","inputs":[{"name":"","type":"address","internalType":"address"}],"outputs":[{"name":"","type":"uint256","internalType":"uint256"}],"stateMutability":"view"},{"type":"function","name":"deposit","inputs":[],"outputs":[],"stateMutability":"payable"},{"type":"function","name":"getBalance","inputs":[],"outputs":[{"name":"","type":"uint256","internalType":"uint256"}],"stateMutability":"view"},{"type":"function","name":"transfer","inputs":[{"name":"to","type":"address","internalType":"address"},{"name":"amount","type":"uint256","internalType":"uint256"}],"outputs":[],"stateMutability":"nonpayable"},{"type":"function","name":"withdraw","inputs":[],"outputs":[],"stateMutability":"nonpayable"},{"type":"event","name":"Deposit","inputs":[{"name":"user","type":"address","indexed":true,"internalType":"address"},{"name":"amount","type":"uint256","indexed":false,"internalType":"uint256"}],"anonymous":false},{"type":"event","name":"Transfer","inputs":[{"name":"from","type":"address","indexed":true,"internalType":"address"},{"name":"to","type":"address","indexed":true,"internalType":"address"},{"name":"amount","type":"uint256","indexed":false,"internalType":"uint256"}],"anonymous":false},{"type":"event","name":"Withdrawal","inputs":[{"name":"user","type":"address","indexed":true,"internalType":"address"},{"name":"amount","type":"uint256","indexed":false,"internalType":"uint256"}],"anonymous":false}],"bytecode":{"object":"0x6080604052348015600e575f5ffd5b506104ed8061001c5f395ff3fe608060405260043610610049575f3560e01c806312065fe01461004d57806327e235e31461006d5780633ccfd60b14610098578063a9059cbb146100ae578063d0e30db0146100cd575b5f5ffd5b348015610058575f5ffd5b50475b60405190815260200160405180910390f35b348015610078575f5ffd5b5061005b610087366004610407565b5f6020819052908152604090205481565b3480156100a3575f5ffd5b506100ac6100d5565b005b3480156100b9575f5ffd5b506100ac6100c8366004610427565b610238565b6100ac610359565b60015460ff16156101015760405162461bcd60e51b81526004016100f89061044f565b60405180910390fd5b6001805460ff191681179055335f908152602081905260409020548061015f5760405162461bcd60e51b81526020600482015260136024820152724e6f7468696e6720746f20776974686472617760681b60448201526064016100f8565b335f818152602081905260408082208290555190919083908381818185875af1925050503d805f81146101ad576040519150601f19603f3d011682016040523d82523d5f602084013e6101b2565b606091505b50509050806101f55760405162461bcd60e51b815260206004820152600f60248201526e151c985b9cd9995c8819985a5b1959608a1b60448201526064016100f8565b60405182815233907f7fcf532c15f0a6db0bd6d0e038bea71d30d808c7d98cb3bf7268a95bf5081b659060200160405180910390a250506001805460ff19169055565b60015460ff161561025b5760405162461bcd60e51b81526004016100f89061044f565b6001805460ff191681179055335f908152602081905260409020548111156102bc5760405162461bcd60e51b8152602060048201526014602482015273496e73756666696369656e742062616c616e636560601b60448201526064016100f8565b335f90815260208190526040812080548392906102da90849061048b565b90915550506001600160a01b0382165f90815260208190526040812080548392906103069084906104a4565b90915550506040518181526001600160a01b0383169033907fddf252ad1be2c89b69c2b068fc378daa952ba7f163c4a11628f55a4df523b3ef9060200160405180910390a350506001805460ff19169055565b60015460ff161561037c5760405162461bcd60e51b81526004016100f89061044f565b6001805460ff191681179055335f90815260208190526040812080543492906103a69084906104a4565b909155505060405134815233907fe1fffcc4923d04b559f4d29a8bfc6cda04eb5b0d3c460751c2402c5c5cc9109c9060200160405180910390a26001805460ff19169055565b80356001600160a01b0381168114610402575f5ffd5b919050565b5f60208284031215610417575f5ffd5b610420826103ec565b9392505050565b5f5f60408385031215610438575f5ffd5b610441836103ec565b946020939093013593505050565b6020808252600e908201526d1499595b9d1c985b9d0818d85b1b60921b604082015260600190565b634e487b7160e01b5f52601160045260245ffd5b8181038181111561049e5761049e610477565b92915050565b8082018082111561049e5761049e61047756fea2646970667358221220ace44c6c02b19f73f0ba199e9f7e7f1f1bbc56ddc500e57808d37bcf51824b5b64736f6c634300081c0033","linkReferences":{}},"methodIdentifiers":{"balances(address)":"27e235e3","deposit()":"d0e30db0","getBalance()":"12065fe0","transfer(address,uint256)":"a9059cbb","withdraw()":"3ccfd60b"},"id":21}