{"abi":[{"type":"constructor","inputs":[{"name":"initA","type":"uint256","internalType":"uint256"},{"name":"initB","type":"uint256","internalType":"uint256"}],"stateMutability":"nonpayable"},{"type":"function","name":"FEE_BPS","inputs":[],"outputs":[{"name":"","type":"uint256","internalType":"uint256"}],"stateMutability":"view"},{"type":"function","name":"balanceA","inputs":[{"name":"","type":"address","internalType":"address"}],"outputs":[{"name":"","type":"uint256","internalType":"uint256"}],"stateMutability":"view"},{"type":"function","name":"balanceB","inputs":[{"name":"","type":"address","internalType":"address"}],"outputs":[{"name":"","type":"uint256","internalType":"uint256"}],"stateMutability":"view"},{"type":"function","name":"deal","inputs":[{"name":"user","type":"address","internalType":"address"},{"name":"amtA","type":"uint256","internalType":"uint256"},{"name":"amtB","type":"uint256","internalType":"uint256"}],"outputs":[],"stateMutability":"nonpayable"},{"type":"function","name":"getSpotPrice","inputs":[],"outputs":[{"name":"","type":"uint256","internalType":"uint256"}],"stateMutability":"view"},{"type":"function","name":"reserveA","inputs":[],"outputs":[{"name":"","type":"uint256","internalType":"uint256"}],"stateMutability":"view"},{"type":"function","name":"reserveB","inputs":[],"outputs":[{"name":"","type":"uint256","internalType":"uint256"}],"stateMutability":"view"},{"type":"function","name":"swapAtoB","inputs":[{"name":"amountIn","type":"uint256","internalType":"uint256"}],"outputs":[{"name":"amountOut","type":"uint256","internalType":"uint256"}],"stateMutability":"nonpayable"},{"type":"function","name":"swapBtoA","inputs":[{"name":"amountIn","type":"uint256","internalType":"uint256"}],"outputs":[{"name":"amountOut","type":"uint256","internalType":"uint256"}],"stateMutability":"nonpayable"},{"type":"event","name":"LiquidityAdded","inputs":[{"name":"user","type":"address","indexed":true,"internalType":"address"},{"name":"amountA","type":"uint256","indexed":false,"internalType":"uint256"},{"name":"amountB","type":"uint256","indexed":false,"internalType":"uint256"}],"anonymous":false},{"type":"event","name":"Swap","inputs":[{"name":"user","type":"address","indexed":true,"internalType":"address"},{"name":"amountIn","type":"uint256","indexed":false,"internalType":"uint256"},{"name":"amountOut","type":"uint256","indexed":false,"internalType":"uint256"},{"name":"aToB","type":"bool","indexed":false,"internalType":"bool"}],"anonymous":false}],"bytecode":{"object":"0x6080604052348015600e575f5ffd5b506040516107e53803806107e5833981016040819052602b916037565b5f919091556001556058565b5f5f604083850312156047575f5ffd5b505080516020909101519092909150565b610780806100655f395ff3fe608060405234801561000f575f5ffd5b5060043610610090575f3560e01c8063da0d673511610063578063da0d6735146100f5578063dc5fa6c514610108578063dc76fabc14610110578063e0441df014610118578063e26acaf51461012b575f5ffd5b806319e36f3b146100945780631cad2cac146100af57806320297e97146100ce578063bf333f2c146100ed575b5f5ffd5b61009d60015481565b60405190815260200160405180910390f35b61009d6100bd36600461066d565b60026020525f908152604090205481565b61009d6100dc36600461066d565b60036020525f908152604090205481565b61009d601e81565b61009d61010336600461068d565b610140565b61009d5f5481565b61009d610370565b61009d61012636600461068d565b6103d6565b61013e6101393660046106a4565b6105f5565b005b5f5f82116101835760405162461bcd60e51b815260206004820152600b60248201526a16995c9bc8185b5bdd5b9d60aa1b60448201526064015b60405180910390fd5b335f908152600260205260409020548211156101d25760405162461bcd60e51b815260206004820152600e60248201526d496e73756666696369656e74204160901b604482015260640161017a565b5f6101e0601e6127106106e8565b6101ea9084610701565b9050805f546127106101fc9190610701565b6102069190610718565b6001546102139083610701565b61021d919061072b565b91505f82116102645760405162461bcd60e51b8152602060048201526013602482015272125b9cdd59999a58da595b9d081bdd5d1c1d5d606a1b604482015260640161017a565b60015482106102ae5760405162461bcd60e51b8152602060048201526016602482015275496e73756666696369656e74206c697175696469747960501b604482015260640161017a565b335f90815260026020526040812080548592906102cc9084906106e8565b9091555050335f90815260036020526040812080548492906102ef908490610718565b92505081905550825f5f8282546103069190610718565b925050819055508160015f82825461031e91906106e8565b9091555050604080518481526020810184905260019181019190915233907fcc65e4d9060ece2ecf63011ac580550b04c8daeba63fac4dfe8669353cd88859906060015b60405180910390a250919050565b5f5f5f54116103b05760405162461bcd60e51b815260206004820152600c60248201526b4e6f206c697175696469747960a01b604482015260640161017a565b5f546001546103c790670de0b6b3a7640000610701565b6103d1919061072b565b905090565b5f5f82116104145760405162461bcd60e51b815260206004820152600b60248201526a16995c9bc8185b5bdd5b9d60aa1b604482015260640161017a565b335f908152600360205260409020548211156104635760405162461bcd60e51b815260206004820152600e60248201526d24b739bab33334b1b4b2b73a102160911b604482015260640161017a565b5f610471601e6127106106e8565b61047b9084610701565b90508060015461271061048e9190610701565b6104989190610718565b5f546104a49083610701565b6104ae919061072b565b91505f82116104f55760405162461bcd60e51b8152602060048201526013602482015272125b9cdd59999a58da595b9d081bdd5d1c1d5d606a1b604482015260640161017a565b5f54821061053e5760405162461bcd60e51b8152602060048201526016602482015275496e73756666696369656e74206c697175696469747960501b604482015260640161017a565b335f908152600360205260408120805485929061055c9084906106e8565b9091555050335f908152600260205260408120805484929061057f908490610718565b925050819055508260015f8282546105979190610718565b92505081905550815f5f8282546105ae91906106e8565b909155505060408051848152602081018490525f9181019190915233907fcc65e4d9060ece2ecf63011ac580550b04c8daeba63fac4dfe8669353cd8885990606001610362565b6001600160a01b0383165f908152600260205260408120805484929061061c908490610718565b90915550506001600160a01b0383165f9081526003602052604081208054839290610648908490610718565b9091555050505050565b80356001600160a01b0381168114610668575f5ffd5b919050565b5f6020828403121561067d575f5ffd5b61068682610652565b9392505050565b5f6020828403121561069d575f5ffd5b5035919050565b5f5f5f606084860312156106b6575f5ffd5b6106bf84610652565b95602085013595506040909401359392505050565b634e487b7160e01b5f52601160045260245ffd5b818103818111156106fb576106fb6106d4565b92915050565b80820281158282048414176106fb576106fb6106d4565b808201808211156106fb576106fb6106d4565b5f8261074557634e487b7160e01b5f52601260045260245ffd5b50049056fea2646970667358221220c6bbc67bddcc49e395c09eb5e26fd77bc6f36654e584f739fcef760f2fc796df64736f6c634300081c0033","linkReferences":{}},"methodIdentifiers":{"FEE_BPS()":"bf333f2c","balanceA(address)":"1cad2cac","balanceB(address)":"20297e97","deal(address,uint256,uint256)":"e26acaf5","getSpotPrice()":"dc76fabc","reserveA()":"dc5fa6c5","reserveB()":"19e36f3b","swapAtoB(uint256)":"da0d6735","swapBtoA(uint256)":"e0441df0"},"id":2}