{"abi":[{"type":"constructor","inputs":[{"name":"_target","type":"address","internalType":"address"}],"stateMutability":"nonpayable"},{"type":"function","name":"attacker","inputs":[],"outputs":[{"name":"","type":"address","internalType":"address"}],"stateMutability":"view"},{"type":"function","name":"claimReward","inputs":[],"outputs":[],"stateMutability":"nonpayable"},{"type":"function","name":"target","inputs":[],"outputs":[{"name":"","type":"address","internalType":"contract VulnerableVault"}],"stateMutability":"view"}],"bytecode":{"object":"0x6080604052348015600e575f5ffd5b506040516101a53803806101a5833981016040819052602b916057565b5f80546001600160a01b039092166001600160a01b031992831617905560018054909116331790556082565b5f602082840312156066575f5ffd5b81516001600160a01b0381168114607b575f5ffd5b9392505050565b6101168061008f5f395ff3fe6080604052348015600e575f5ffd5b5060043610603a575f3560e01c806348eb76ee14603e578063b88a802f14606c578063d4b83992146074575b5f5ffd5b6001546050906001600160a01b031681565b6040516001600160a01b03909116815260200160405180910390f35b60726085565b005b5f546050906001600160a01b031681565b5f546001546040516371a18bfb60e01b81526001600160a01b0391821660048201529116906371a18bfb906024015f604051808303815f87803b15801560c9575f5ffd5b505af115801560da573d5f5f3e3d5ffd5b5050505056fea2646970667358221220924570d5c32a0d69ec422832a1795af63de39498b07add1324ba075bb5f4e46e64736f6c634300081c0033","linkReferences":{}},"methodIdentifiers":{"attacker()":"48eb76ee","claimReward()":"b88a802f","target()":"d4b83992"},"id":21}