{"abi":[{"type":"constructor","inputs":[],"stateMutability":"nonpayable"},{"type":"function","name":"balances","inputs":[{"name":"","type":"address","internalType":"address"}],"outputs":[{"name":"","type":"uint256","internalType":"uint256"}],"stateMutability":"view"},{"type":"function","name":"batchTransfer","inputs":[{"name":"recipients","type":"address[]","internalType":"address[]"},{"name":"amount","type":"uint256","internalType":"uint256"}],"outputs":[],"stateMutability":"nonpayable"},{"type":"function","name":"name","inputs":[],"outputs":[{"name":"","type":"string","internalType":"string"}],"stateMutability":"view"},{"type":"function","name":"symbol","inputs":[],"outputs":[{"name":"","type":"string","internalType":"string"}],"stateMutability":"view"},{"type":"function","name":"totalSupply","inputs":[],"outputs":[{"name":"","type":"uint256","internalType":"uint256"}],"stateMutability":"view"},{"type":"function","name":"transfer","inputs":[{"name":"to","type":"address","internalType":"address"},{"name":"amount","type":"uint256","internalType":"uint256"}],"outputs":[],"stateMutability":"nonpayable"},{"type":"event","name":"Transfer","inputs":[{"name":"from","type":"address","indexed":true,"internalType":"address"},{"name":"to","type":"address","indexed":true,"internalType":"address"},{"name":"amount","type":"uint256","indexed":false,"internalType":"uint256"}],"anonymous":false}],"bytecode":{"object":"0x60c0604052600b60809081526a29b2b1bab932aa37b5b2b760a91b60a05260029061002a908261011a565b506040805180820190915260038082526214d0d560ea1b602083015290610051908261011a565b5034801561005d575f5ffd5b5069d3c21bcecceda10000006001819055335f908152602081905260409020556101d4565b634e487b7160e01b5f52604160045260245ffd5b600181811c908216806100aa57607f821691505b6020821081036100c857634e487b7160e01b5f52602260045260245ffd5b50919050565b601f82111561011557805f5260205f20601f840160051c810160208510156100f35750805b601f840160051c820191505b81811015610112575f81556001016100ff565b50505b505050565b81516001600160401b0381111561013357610133610082565b610147816101418454610096565b846100ce565b6020601f821160018114610179575f83156101625750848201515b5f19600385901b1c1916600184901b178455610112565b5f84815260208120601f198516915b828110156101a85787850151825560209485019460019092019101610188565b50848210156101c557868401515f19600387901b60f8161c191681555b50505050600190811b01905550565b61063d806101e15f395ff3fe608060405234801561000f575f5ffd5b5060043610610060575f3560e01c806306fdde031461006457806318160ddd1461008257806327e235e31461009957806383f12fec146100b857806395d89b41146100cd578063a9059cbb146100d5575b5f5ffd5b61006c6100e8565b6040516100799190610457565b60405180910390f35b61008b60015481565b604051908152602001610079565b61008b6100a73660046104a7565b5f6020819052908152604090205481565b6100cb6100c63660046104c7565b610174565b005b61006c61036a565b6100cb6100e336600461053c565b610377565b600280546100f590610564565b80601f016020809104026020016040519081016040528092919081815260200182805461012190610564565b801561016c5780601f106101435761010080835404028352916020019161016c565b820191905f5260205f20905b81548152906001019060200180831161014f57829003601f168201915b505050505081565b816101b65760405162461bcd60e51b815260206004820152600d60248201526c4e6f20726563697069656e747360981b60448201526064015b60405180910390fd5b5f81116101fa5760405162461bcd60e51b81526020600482015260126024820152710416d6f756e74206d757374206265203e20360741b60448201526064016101ad565b5f61020582846105b0565b335f9081526020819052604090205490915081111561025d5760405162461bcd60e51b8152602060048201526014602482015273496e73756666696369656e742062616c616e636560601b60448201526064016101ad565b335f908152602081905260408120805483929061027b9084906105cd565b909155505f90505b8381101561036357825f5f8787858181106102a0576102a06105e0565b90506020020160208101906102b591906104a7565b6001600160a01b03166001600160a01b031681526020019081526020015f205f8282546102e291906105f4565b9091555085905084828181106102fa576102fa6105e0565b905060200201602081019061030f91906104a7565b6001600160a01b0316336001600160a01b03167fddf252ad1be2c89b69c2b068fc378daa952ba7f163c4a11628f55a4df523b3ef8560405161035391815260200190565b60405180910390a3600101610283565b5050505050565b600380546100f590610564565b335f908152602081905260409020548111156103c45760405162461bcd60e51b815260206004820152600c60248201526b125b9cdd59999a58da595b9d60a21b60448201526064016101ad565b335f90815260208190526040812080548392906103e29084906105cd565b90915550506001600160a01b0382165f908152602081905260408120805483929061040e9084906105f4565b90915550506040518181526001600160a01b0383169033907fddf252ad1be2c89b69c2b068fc378daa952ba7f163c4a11628f55a4df523b3ef9060200160405180910390a35050565b602081525f82518060208401528060208501604085015e5f604082850101526040601f19601f83011684010191505092915050565b80356001600160a01b03811681146104a2575f5ffd5b919050565b5f602082840312156104b7575f5ffd5b6104c08261048c565b9392505050565b5f5f5f604084860312156104d9575f5ffd5b833567ffffffffffffffff8111156104ef575f5ffd5b8401601f810186136104ff575f5ffd5b803567ffffffffffffffff811115610515575f5ffd5b8660208260051b8401011115610529575f5ffd5b6020918201979096509401359392505050565b5f5f6040838503121561054d575f5ffd5b6105568361048c565b946020939093013593505050565b600181811c9082168061057857607f821691505b60208210810361059657634e487b7160e01b5f52602260045260245ffd5b50919050565b634e487b7160e01b5f52601160045260245ffd5b80820281158282048414176105c7576105c761059c565b92915050565b818103818111156105c7576105c761059c565b634e487b7160e01b5f52603260045260245ffd5b808201808211156105c7576105c761059c56fea26469706673582212203a45fc7bf78505c73d66bf84316020c0e107297a9b5ae6d1487b8c0361e3436264736f6c634300081c0033","linkReferences":{}},"methodIdentifiers":{"balances(address)":"27e235e3","batchTransfer(address[],uint256)":"83f12fec","name()":"06fdde03","symbol()":"95d89b41","totalSupply()":"18160ddd","transfer(address,uint256)":"a9059cbb"},"id":20}